{
  "contractName": "MetaHunterToken",
  "abi": [
    {
      "inputs": [
        {
          "internalType": "address",
          "name": "_WBNB",
          "type": "address"
        },
        {
          "internalType": "address",
          "name": "_addressReceiver",
          "type": "address"
        }
      ],
      "stateMutability": "nonpayable",
      "type": "constructor"
    },
    {
      "anonymous": false,
      "inputs": [
        {
          "indexed": true,
          "internalType": "address",
          "name": "owner",
          "type": "address"
        },
        {
          "indexed": true,
          "internalType": "address",
          "name": "spender",
          "type": "address"
        },
        {
          "indexed": false,
          "internalType": "uint256",
          "name": "value",
          "type": "uint256"
        }
      ],
      "name": "Approval",
      "type": "event"
    },
    {
      "anonymous": false,
      "inputs": [
        {
          "indexed": true,
          "internalType": "address",
          "name": "account",
          "type": "address"
        },
        {
          "indexed": false,
          "internalType": "bool",
          "name": "isExcluded",
          "type": "bool"
        }
      ],
      "name": "ExcludeFromFees",
      "type": "event"
    },
    {
      "anonymous": false,
      "inputs": [
        {
          "indexed": true,
          "internalType": "address",
          "name": "previousOwner",
          "type": "address"
        },
        {
          "indexed": true,
          "internalType": "address",
          "name": "newOwner",
          "type": "address"
        }
      ],
      "name": "OwnershipTransferred",
      "type": "event"
    },
    {
      "anonymous": false,
      "inputs": [
        {
          "indexed": true,
          "internalType": "address",
          "name": "from",
          "type": "address"
        },
        {
          "indexed": true,
          "internalType": "address",
          "name": "to",
          "type": "address"
        },
        {
          "indexed": false,
          "internalType": "uint256",
          "name": "value",
          "type": "uint256"
        }
      ],
      "name": "Transfer",
      "type": "event"
    },
    {
      "inputs": [],
      "name": "owner",
      "outputs": [
        {
          "internalType": "address",
          "name": "",
          "type": "address"
        }
      ],
      "stateMutability": "view",
      "type": "function",
      "constant": true
    },
    {
      "inputs": [],
      "name": "renounceOwnership",
      "outputs": [],
      "stateMutability": "nonpayable",
      "type": "function"
    },
    {
      "inputs": [
        {
          "internalType": "address",
          "name": "newOwner",
          "type": "address"
        }
      ],
      "name": "transferOwnership",
      "outputs": [],
      "stateMutability": "nonpayable",
      "type": "function"
    },
    {
      "inputs": [],
      "name": "uniswapV2Pair",
      "outputs": [
        {
          "internalType": "address",
          "name": "",
          "type": "address"
        }
      ],
      "stateMutability": "view",
      "type": "function",
      "constant": true
    },
    {
      "inputs": [],
      "name": "uniswapV2Router",
      "outputs": [
        {
          "internalType": "contract IUniswapV2Router02",
          "name": "",
          "type": "address"
        }
      ],
      "stateMutability": "view",
      "type": "function",
      "constant": true
    },
    {
      "inputs": [],
      "name": "getOwner",
      "outputs": [
        {
          "internalType": "address",
          "name": "",
          "type": "address"
        }
      ],
      "stateMutability": "view",
      "type": "function",
      "constant": true
    },
    {
      "inputs": [],
      "name": "decimals",
      "outputs": [
        {
          "internalType": "uint8",
          "name": "",
          "type": "uint8"
        }
      ],
      "stateMutability": "view",
      "type": "function",
      "constant": true
    },
    {
      "inputs": [],
      "name": "symbol",
      "outputs": [
        {
          "internalType": "string",
          "name": "",
          "type": "string"
        }
      ],
      "stateMutability": "view",
      "type": "function",
      "constant": true
    },
    {
      "inputs": [],
      "name": "name",
      "outputs": [
        {
          "internalType": "string",
          "name": "",
          "type": "string"
        }
      ],
      "stateMutability": "view",
      "type": "function",
      "constant": true
    },
    {
      "inputs": [],
      "name": "totalSupply",
      "outputs": [
        {
          "internalType": "uint256",
          "name": "",
          "type": "uint256"
        }
      ],
      "stateMutability": "view",
      "type": "function",
      "constant": true
    },
    {
      "inputs": [
        {
          "internalType": "address",
          "name": "account",
          "type": "address"
        }
      ],
      "name": "balanceOf",
      "outputs": [
        {
          "internalType": "uint256",
          "name": "",
          "type": "uint256"
        }
      ],
      "stateMutability": "view",
      "type": "function",
      "constant": true
    },
    {
      "inputs": [
        {
          "internalType": "address",
          "name": "recipient",
          "type": "address"
        },
        {
          "internalType": "uint256",
          "name": "amount",
          "type": "uint256"
        }
      ],
      "name": "transfer",
      "outputs": [
        {
          "internalType": "bool",
          "name": "",
          "type": "bool"
        }
      ],
      "stateMutability": "nonpayable",
      "type": "function"
    },
    {
      "inputs": [
        {
          "internalType": "address",
          "name": "owner",
          "type": "address"
        },
        {
          "internalType": "address",
          "name": "spender",
          "type": "address"
        }
      ],
      "name": "allowance",
      "outputs": [
        {
          "internalType": "uint256",
          "name": "",
          "type": "uint256"
        }
      ],
      "stateMutability": "view",
      "type": "function",
      "constant": true
    },
    {
      "inputs": [
        {
          "internalType": "address",
          "name": "spender",
          "type": "address"
        },
        {
          "internalType": "uint256",
          "name": "amount",
          "type": "uint256"
        }
      ],
      "name": "approve",
      "outputs": [
        {
          "internalType": "bool",
          "name": "",
          "type": "bool"
        }
      ],
      "stateMutability": "nonpayable",
      "type": "function"
    },
    {
      "inputs": [
        {
          "internalType": "address",
          "name": "sender",
          "type": "address"
        },
        {
          "internalType": "address",
          "name": "recipient",
          "type": "address"
        },
        {
          "internalType": "uint256",
          "name": "amount",
          "type": "uint256"
        }
      ],
      "name": "transferFrom",
      "outputs": [
        {
          "internalType": "bool",
          "name": "",
          "type": "bool"
        }
      ],
      "stateMutability": "nonpayable",
      "type": "function"
    },
    {
      "inputs": [
        {
          "internalType": "address",
          "name": "sender",
          "type": "address"
        },
        {
          "internalType": "address",
          "name": "recipient",
          "type": "address"
        },
        {
          "internalType": "uint256",
          "name": "amount",
          "type": "uint256"
        }
      ],
      "name": "safeTransfer",
      "outputs": [
        {
          "internalType": "bool",
          "name": "",
          "type": "bool"
        }
      ],
      "stateMutability": "nonpayable",
      "type": "function"
    },
    {
      "inputs": [
        {
          "internalType": "address",
          "name": "spender",
          "type": "address"
        },
        {
          "internalType": "uint256",
          "name": "addedValue",
          "type": "uint256"
        }
      ],
      "name": "increaseAllowance",
      "outputs": [
        {
          "internalType": "bool",
          "name": "",
          "type": "bool"
        }
      ],
      "stateMutability": "nonpayable",
      "type": "function"
    },
    {
      "inputs": [
        {
          "internalType": "address",
          "name": "spender",
          "type": "address"
        },
        {
          "internalType": "uint256",
          "name": "subtractedValue",
          "type": "uint256"
        }
      ],
      "name": "decreaseAllowance",
      "outputs": [
        {
          "internalType": "bool",
          "name": "",
          "type": "bool"
        }
      ],
      "stateMutability": "nonpayable",
      "type": "function"
    },
    {
      "inputs": [
        {
          "internalType": "uint256",
          "name": "amount",
          "type": "uint256"
        }
      ],
      "name": "mint",
      "outputs": [
        {
          "internalType": "bool",
          "name": "",
          "type": "bool"
        }
      ],
      "stateMutability": "nonpayable",
      "type": "function"
    },
    {
      "inputs": [
        {
          "internalType": "uint256",
          "name": "rate",
          "type": "uint256"
        }
      ],
      "name": "changeBuyFeeRate",
      "outputs": [
        {
          "internalType": "uint256",
          "name": "",
          "type": "uint256"
        }
      ],
      "stateMutability": "nonpayable",
      "type": "function"
    },
    {
      "inputs": [
        {
          "internalType": "uint256",
          "name": "rate",
          "type": "uint256"
        }
      ],
      "name": "changeSellFeeRate",
      "outputs": [
        {
          "internalType": "uint256",
          "name": "",
          "type": "uint256"
        }
      ],
      "stateMutability": "nonpayable",
      "type": "function"
    },
    {
      "inputs": [],
      "name": "activateAntiBot",
      "outputs": [
        {
          "internalType": "bool",
          "name": "",
          "type": "bool"
        }
      ],
      "stateMutability": "nonpayable",
      "type": "function"
    },
    {
      "inputs": [],
      "name": "deactivateAntiBot",
      "outputs": [
        {
          "internalType": "bool",
          "name": "",
          "type": "bool"
        }
      ],
      "stateMutability": "nonpayable",
      "type": "function"
    },
    {
      "inputs": [
        {
          "internalType": "address",
          "name": "account",
          "type": "address"
        }
      ],
      "name": "addToWhitelist",
      "outputs": [
        {
          "internalType": "uint256",
          "name": "",
          "type": "uint256"
        }
      ],
      "stateMutability": "nonpayable",
      "type": "function"
    },
    {
      "inputs": [
        {
          "internalType": "address",
          "name": "account",
          "type": "address"
        }
      ],
      "name": "removeFromWhitelist",
      "outputs": [
        {
          "internalType": "uint256",
          "name": "",
          "type": "uint256"
        }
      ],
      "stateMutability": "nonpayable",
      "type": "function"
    },
    {
      "inputs": [
        {
          "internalType": "uint256",
          "name": "amount",
          "type": "uint256"
        }
      ],
      "name": "burn",
      "outputs": [],
      "stateMutability": "nonpayable",
      "type": "function"
    }
  ],
  "bytecode": "0x60806040526002600c556002600d556000600e556001600f5560016010553480156200002a57600080fd5b50604051620036fb380380620036fb833981810160405281019062000050919062000875565b6000620000626200058060201b60201c565b9050806000806101000a81548173ffffffffffffffffffffffffffffffffffffffff021916908373ffffffffffffffffffffffffffffffffffffffff1602179055508073ffffffffffffffffffffffffffffffffffffffff16600073ffffffffffffffffffffffffffffffffffffffff167f8be0079c531659141344cd1fd0a4f28419497f9722a3daafe3b4186f6b6457e060405160405180910390a3506040518060400160405280600a81526020017f4d65746148756e74657200000000000000000000000000000000000000000000815250600790805190602001906200014d9291906200075b565b506040518060400160405280600381526020017f4d54480000000000000000000000000000000000000000000000000000000000815250600690805190602001906200019b9291906200075b565b506012600560006101000a81548160ff021916908360ff1602179055506a52b7d2dcc80cd2e4000000600481905550600454600160003373ffffffffffffffffffffffffffffffffffffffff1673ffffffffffffffffffffffffffffffffffffffff168152602001908152602001600020819055506001600360003373ffffffffffffffffffffffffffffffffffffffff1673ffffffffffffffffffffffffffffffffffffffff1681526020019081526020016000208190555081600860006101000a81548173ffffffffffffffffffffffffffffffffffffffff021916908373ffffffffffffffffffffffffffffffffffffffff16021790555080600960006101000a81548173ffffffffffffffffffffffffffffffffffffffff021916908373ffffffffffffffffffffffffffffffffffffffff1602179055506000739ac64cc6e4415144c455bd8e4837fea55603e5c390508073ffffffffffffffffffffffffffffffffffffffff1663c45a01556040518163ffffffff1660e01b8152600401602060405180830381865afa1580156200033c573d6000803e3d6000fd5b505050506040513d601f19601f82011682018060405250810190620003629190620008bc565b73ffffffffffffffffffffffffffffffffffffffff1663c9c65396308373ffffffffffffffffffffffffffffffffffffffff1663ad5c46486040518163ffffffff1660e01b8152600401602060405180830381865afa158015620003ca573d6000803e3d6000fd5b505050506040513d601f19601f82011682018060405250810190620003f09190620008bc565b6040518363ffffffff1660e01b81526004016200040f929190620008ff565b6020604051808303816000875af11580156200042f573d6000803e3d6000fd5b505050506040513d601f19601f82011682018060405250810190620004559190620008bc565b600b60006101000a81548173ffffffffffffffffffffffffffffffffffffffff021916908373ffffffffffffffffffffffffffffffffffffffff16021790555080600a60006101000a81548173ffffffffffffffffffffffffffffffffffffffff021916908373ffffffffffffffffffffffffffffffffffffffff1602179055506200050d30600a60009054906101000a900473ffffffffffffffffffffffffffffffffffffffff166000196200058860201b60201c565b3373ffffffffffffffffffffffffffffffffffffffff16600073ffffffffffffffffffffffffffffffffffffffff167fddf252ad1be2c89b69c2b068fc378daa952ba7f163c4a11628f55a4df523b3ef6004546040516200056f919062000947565b60405180910390a350505062000b0a565b600033905090565b600073ffffffffffffffffffffffffffffffffffffffff168373ffffffffffffffffffffffffffffffffffffffff161415620005fb576040517f08c379a0000000000000000000000000000000000000000000000000000000008152600401620005f290620009eb565b60405180910390fd5b600073ffffffffffffffffffffffffffffffffffffffff168273ffffffffffffffffffffffffffffffffffffffff1614156200066e576040517f08c379a0000000000000000000000000000000000000000000000000000000008152600401620006659062000a83565b60405180910390fd5b80600260008573ffffffffffffffffffffffffffffffffffffffff1673ffffffffffffffffffffffffffffffffffffffff16815260200190815260200160002060008473ffffffffffffffffffffffffffffffffffffffff1673ffffffffffffffffffffffffffffffffffffffff168152602001908152602001600020819055508173ffffffffffffffffffffffffffffffffffffffff168373ffffffffffffffffffffffffffffffffffffffff167f8c5be1e5ebec7d5bd14f71427d1e84f3dd0314c0f7b2291e5b200ac8c7c3b925836040516200074e919062000947565b60405180910390a3505050565b828054620007699062000ad4565b90600052602060002090601f0160209004810192826200078d5760008555620007d9565b82601f10620007a857805160ff1916838001178555620007d9565b82800160010185558215620007d9579182015b82811115620007d8578251825591602001919060010190620007bb565b5b509050620007e89190620007ec565b5090565b5b8082111562000807576000816000905550600101620007ed565b5090565b600080fd5b600073ffffffffffffffffffffffffffffffffffffffff82169050919050565b60006200083d8262000810565b9050919050565b6200084f8162000830565b81146200085b57600080fd5b50565b6000815190506200086f8162000844565b92915050565b600080604083850312156200088f576200088e6200080b565b5b60006200089f858286016200085e565b9250506020620008b2858286016200085e565b9150509250929050565b600060208284031215620008d557620008d46200080b565b5b6000620008e5848285016200085e565b91505092915050565b620008f98162000830565b82525050565b6000604082019050620009166000830185620008ee565b620009256020830184620008ee565b9392505050565b6000819050919050565b62000941816200092c565b82525050565b60006020820190506200095e600083018462000936565b92915050565b600082825260208201905092915050565b7f42455032303a20617070726f76652066726f6d20746865207a65726f2061646460008201527f7265737300000000000000000000000000000000000000000000000000000000602082015250565b6000620009d360248362000964565b9150620009e08262000975565b604082019050919050565b6000602082019050818103600083015262000a0681620009c4565b9050919050565b7f42455032303a20617070726f766520746f20746865207a65726f20616464726560008201527f7373000000000000000000000000000000000000000000000000000000000000602082015250565b600062000a6b60228362000964565b915062000a788262000a0d565b604082019050919050565b6000602082019050818103600083015262000a9e8162000a5c565b9050919050565b7f4e487b7100000000000000000000000000000000000000000000000000000000600052602260045260246000fd5b6000600282049050600182168062000aed57607f821691505b6020821081141562000b045762000b0362000aa5565b5b50919050565b612be18062000b1a6000396000f3fe608060405234801561001057600080fd5b506004361061018e5760003560e01c80638ab1d681116100de578063a9059cbb11610097578063d1660f9911610071578063d1660f99146104c5578063dd62ed3e146104f5578063e43252d714610525578063f2fde38b146105555761018e565b8063a9059cbb14610447578063af59d31614610477578063c71a1b83146104a75761018e565b80638ab1d6811461034b5780638da5cb5b1461037b578063959f4bf11461039957806395d89b41146103c9578063a0712d68146103e7578063a457c2d7146104175761018e565b8063313ce5671161014b57806349bd5a5e1161012557806349bd5a5e146102d557806370a08231146102f3578063715018a614610323578063893d20e81461032d5761018e565b8063313ce5671461026b578063395093511461028957806342966c68146102b95761018e565b806306fdde0314610193578063095ea7b3146101b15780631694505e146101e157806318160ddd146101ff578063188ee4231461021d57806323b872dd1461023b575b600080fd5b61019b610571565b6040516101a89190612055565b60405180910390f35b6101cb60048036038101906101c69190612110565b610603565b6040516101d8919061216b565b60405180910390f35b6101e9610621565b6040516101f691906121e5565b60405180910390f35b610207610647565b604051610214919061220f565b60405180910390f35b610225610651565b604051610232919061216b565b60405180910390f35b6102556004803603810190610250919061222a565b6106ab565b604051610262919061216b565b60405180910390f35b6102736108b7565b6040516102809190612299565b60405180910390f35b6102a3600480360381019061029e9190612110565b6108ce565b6040516102b0919061216b565b60405180910390f35b6102d360048036038101906102ce91906122b4565b610981565b005b6102dd610995565b6040516102ea91906122f0565b60405180910390f35b61030d6004803603810190610308919061230b565b6109bb565b60405161031a919061220f565b60405180910390f35b61032b610a04565b005b610335610b57565b60405161034291906122f0565b60405180910390f35b6103656004803603810190610360919061230b565b610b66565b604051610372919061220f565b60405180910390f35b610383610c89565b60405161039091906122f0565b60405180910390f35b6103b360048036038101906103ae91906122b4565b610cb2565b6040516103c0919061220f565b60405180910390f35b6103d1610d0e565b6040516103de9190612055565b60405180910390f35b61040160048036038101906103fc91906122b4565b610da0565b60405161040e919061216b565b60405180910390f35b610431600480360381019061042c9190612110565b610e51565b60405161043e919061216b565b60405180910390f35b610461600480360381019061045c9190612110565b610f1e565b60405161046e919061216b565b60405180910390f35b610491600480360381019061048c91906122b4565b610f3d565b60405161049e919061220f565b60405180910390f35b6104af610f99565b6040516104bc919061216b565b60405180910390f35b6104df60048036038101906104da919061222a565b610ff3565b6040516104ec919061216b565b60405180910390f35b61050f600480360381019061050a9190612338565b61100b565b60405161051c919061220f565b60405180910390f35b61053f600480360381019061053a919061230b565b611092565b60405161054c919061220f565b60405180910390f35b61056f600480360381019061056a919061230b565b6111b5565b005b606060078054610580906123a7565b80601f01602080910402602001604051908101604052809291908181526020018280546105ac906123a7565b80156105f95780601f106105ce576101008083540402835291602001916105f9565b820191906000526020600020905b8154815290600101906020018083116105dc57829003601f168201915b5050505050905090565b6000610617610610611256565b848461125e565b6001905092915050565b600a60009054906101000a900473ffffffffffffffffffffffffffffffffffffffff1681565b6000600454905090565b60006001600360003373ffffffffffffffffffffffffffffffffffffffff1673ffffffffffffffffffffffffffffffffffffffff1681526020019081526020016000205414156106a4576001600f819055505b6001905090565b600080600f541415610788576106c2848484611429565b610783846106ce611256565b61077e85604051806060016040528060288152602001612b1760289139600260008b73ffffffffffffffffffffffffffffffffffffffff1673ffffffffffffffffffffffffffffffffffffffff1681526020019081526020016000206000610734611256565b73ffffffffffffffffffffffffffffffffffffffff1673ffffffffffffffffffffffffffffffffffffffff168152602001908152602001600020546116b79092919063ffffffff16565b61125e565b6108ab565b6000600360008673ffffffffffffffffffffffffffffffffffffffff1673ffffffffffffffffffffffffffffffffffffffff1681526020019081526020016000205411156108a1576107db848484611429565b61089c846107e7611256565b61089785604051806060016040528060288152602001612b1760289139600260008b73ffffffffffffffffffffffffffffffffffffffff1673ffffffffffffffffffffffffffffffffffffffff168152602001908152602001600020600061084d611256565b73ffffffffffffffffffffffffffffffffffffffff1673ffffffffffffffffffffffffffffffffffffffff168152602001908152602001600020546116b79092919063ffffffff16565b61125e565b6108aa565b600090506108b0565b5b600190505b9392505050565b6000600560009054906101000a900460ff16905090565b60006109776108db611256565b8461097285600260006108ec611256565b73ffffffffffffffffffffffffffffffffffffffff1673ffffffffffffffffffffffffffffffffffffffff16815260200190815260200160002060008973ffffffffffffffffffffffffffffffffffffffff1673ffffffffffffffffffffffffffffffffffffffff1681526020019081526020016000205461171b90919063ffffffff16565b61125e565b6001905092915050565b61099261098c611256565b82611779565b50565b600b60009054906101000a900473ffffffffffffffffffffffffffffffffffffffff1681565b6000600160008373ffffffffffffffffffffffffffffffffffffffff1673ffffffffffffffffffffffffffffffffffffffff168152602001908152602001600020549050919050565b610a0c611256565b73ffffffffffffffffffffffffffffffffffffffff1660008054906101000a900473ffffffffffffffffffffffffffffffffffffffff1673ffffffffffffffffffffffffffffffffffffffff1614610a99576040517f08c379a0000000000000000000000000000000000000000000000000000000008152600401610a9090612425565b60405180910390fd5b600073ffffffffffffffffffffffffffffffffffffffff1660008054906101000a900473ffffffffffffffffffffffffffffffffffffffff1673ffffffffffffffffffffffffffffffffffffffff167f8be0079c531659141344cd1fd0a4f28419497f9722a3daafe3b4186f6b6457e060405160405180910390a360008060006101000a81548173ffffffffffffffffffffffffffffffffffffffff021916908373ffffffffffffffffffffffffffffffffffffffff160217905550565b6000610b61610c89565b905090565b6000610b70611256565b73ffffffffffffffffffffffffffffffffffffffff1660008054906101000a900473ffffffffffffffffffffffffffffffffffffffff1673ffffffffffffffffffffffffffffffffffffffff1614610bfd576040517f08c379a0000000000000000000000000000000000000000000000000000000008152600401610bf490612425565b60405180910390fd5b6000600360008473ffffffffffffffffffffffffffffffffffffffff1673ffffffffffffffffffffffffffffffffffffffff16815260200190815260200160002081905550600360008373ffffffffffffffffffffffffffffffffffffffff1673ffffffffffffffffffffffffffffffffffffffff168152602001908152602001600020549050919050565b60008060009054906101000a900473ffffffffffffffffffffffffffffffffffffffff16905090565b60006001600360003373ffffffffffffffffffffffffffffffffffffffff1673ffffffffffffffffffffffffffffffffffffffff168152602001908152602001600020541415610d045781600d819055505b600d549050919050565b606060068054610d1d906123a7565b80601f0160208091040260200160405190810160405280929190818152602001828054610d49906123a7565b8015610d965780601f10610d6b57610100808354040283529160200191610d96565b820191906000526020600020905b815481529060010190602001808311610d7957829003601f168201915b5050505050905090565b6000610daa611256565b73ffffffffffffffffffffffffffffffffffffffff1660008054906101000a900473ffffffffffffffffffffffffffffffffffffffff1673ffffffffffffffffffffffffffffffffffffffff1614610e37576040517f08c379a0000000000000000000000000000000000000000000000000000000008152600401610e2e90612425565b60405180910390fd5b610e48610e42611256565b8361191d565b60019050919050565b6000610f14610e5e611256565b84610f0f85604051806060016040528060258152602001612b656025913960026000610e88611256565b73ffffffffffffffffffffffffffffffffffffffff1673ffffffffffffffffffffffffffffffffffffffff16815260200190815260200160002060008a73ffffffffffffffffffffffffffffffffffffffff1673ffffffffffffffffffffffffffffffffffffffff168152602001908152602001600020546116b79092919063ffffffff16565b61125e565b6001905092915050565b6000610f32610f2b611256565b8484611aa7565b506001905092915050565b60006001600360003373ffffffffffffffffffffffffffffffffffffffff1673ffffffffffffffffffffffffffffffffffffffff168152602001908152602001600020541415610f8f5781600c819055505b600c549050919050565b60006001600360003373ffffffffffffffffffffffffffffffffffffffff1673ffffffffffffffffffffffffffffffffffffffff168152602001908152602001600020541415610fec576000600f819055505b6001905090565b6000611000848484611429565b600190509392505050565b6000600260008473ffffffffffffffffffffffffffffffffffffffff1673ffffffffffffffffffffffffffffffffffffffff16815260200190815260200160002060008373ffffffffffffffffffffffffffffffffffffffff1673ffffffffffffffffffffffffffffffffffffffff16815260200190815260200160002054905092915050565b600061109c611256565b73ffffffffffffffffffffffffffffffffffffffff1660008054906101000a900473ffffffffffffffffffffffffffffffffffffffff1673ffffffffffffffffffffffffffffffffffffffff1614611129576040517f08c379a000000000000000000000000000000000000000000000000000000000815260040161112090612425565b60405180910390fd5b6001600360008473ffffffffffffffffffffffffffffffffffffffff1673ffffffffffffffffffffffffffffffffffffffff16815260200190815260200160002081905550600360008373ffffffffffffffffffffffffffffffffffffffff1673ffffffffffffffffffffffffffffffffffffffff168152602001908152602001600020549050919050565b6111bd611256565b73ffffffffffffffffffffffffffffffffffffffff1660008054906101000a900473ffffffffffffffffffffffffffffffffffffffff1673ffffffffffffffffffffffffffffffffffffffff161461124a576040517f08c379a000000000000000000000000000000000000000000000000000000000815260040161124190612425565b60405180910390fd5b61125381611e45565b50565b600033905090565b600073ffffffffffffffffffffffffffffffffffffffff168373ffffffffffffffffffffffffffffffffffffffff1614156112ce576040517f08c379a00000000000000000000000000000000000000000000000000000000081526004016112c5906124b7565b60405180910390fd5b600073ffffffffffffffffffffffffffffffffffffffff168273ffffffffffffffffffffffffffffffffffffffff16141561133e576040517f08c379a000000000000000000000000000000000000000000000000000000000815260040161133590612549565b60405180910390fd5b80600260008573ffffffffffffffffffffffffffffffffffffffff1673ffffffffffffffffffffffffffffffffffffffff16815260200190815260200160002060008473ffffffffffffffffffffffffffffffffffffffff1673ffffffffffffffffffffffffffffffffffffffff168152602001908152602001600020819055508173ffffffffffffffffffffffffffffffffffffffff168373ffffffffffffffffffffffffffffffffffffffff167f8c5be1e5ebec7d5bd14f71427d1e84f3dd0314c0f7b2291e5b200ac8c7c3b9258360405161141c919061220f565b60405180910390a3505050565b600073ffffffffffffffffffffffffffffffffffffffff168373ffffffffffffffffffffffffffffffffffffffff161415611499576040517f08c379a0000000000000000000000000000000000000000000000000000000008152600401611490906125db565b60405180910390fd5b600073ffffffffffffffffffffffffffffffffffffffff168273ffffffffffffffffffffffffffffffffffffffff161415611509576040517f08c379a00000000000000000000000000000000000000000000000000000000081526004016115009061266d565b60405180910390fd5b61157581604051806060016040528060268152602001612b3f60269139600160008773ffffffffffffffffffffffffffffffffffffffff1673ffffffffffffffffffffffffffffffffffffffff168152602001908152602001600020546116b79092919063ffffffff16565b600160008573ffffffffffffffffffffffffffffffffffffffff1673ffffffffffffffffffffffffffffffffffffffff1681526020019081526020016000208190555061160a81600160008573ffffffffffffffffffffffffffffffffffffffff1673ffffffffffffffffffffffffffffffffffffffff1681526020019081526020016000205461171b90919063ffffffff16565b600160008473ffffffffffffffffffffffffffffffffffffffff1673ffffffffffffffffffffffffffffffffffffffff168152602001908152602001600020819055508173ffffffffffffffffffffffffffffffffffffffff168373ffffffffffffffffffffffffffffffffffffffff167fddf252ad1be2c89b69c2b068fc378daa952ba7f163c4a11628f55a4df523b3ef836040516116aa919061220f565b60405180910390a3505050565b60008383111582906116ff576040517f08c379a00000000000000000000000000000000000000000000000000000000081526004016116f69190612055565b60405180910390fd5b506000838561170e91906126bc565b9050809150509392505050565b600080828461172a91906126f0565b90508381101561176f576040517f08c379a000000000000000000000000000000000000000000000000000000000815260040161176690612792565b60405180910390fd5b8091505092915050565b600073ffffffffffffffffffffffffffffffffffffffff168273ffffffffffffffffffffffffffffffffffffffff1614156117e9576040517f08c379a00000000000000000000000000000000000000000000000000000000081526004016117e090612824565b60405180910390fd5b61185581604051806060016040528060228152602001612b8a60229139600160008673ffffffffffffffffffffffffffffffffffffffff1673ffffffffffffffffffffffffffffffffffffffff168152602001908152602001600020546116b79092919063ffffffff16565b600160008473ffffffffffffffffffffffffffffffffffffffff1673ffffffffffffffffffffffffffffffffffffffff168152602001908152602001600020819055506118ad81600454611f7290919063ffffffff16565b600481905550600073ffffffffffffffffffffffffffffffffffffffff168273ffffffffffffffffffffffffffffffffffffffff167fddf252ad1be2c89b69c2b068fc378daa952ba7f163c4a11628f55a4df523b3ef83604051611911919061220f565b60405180910390a35050565b600073ffffffffffffffffffffffffffffffffffffffff168273ffffffffffffffffffffffffffffffffffffffff16141561198d576040517f08c379a000000000000000000000000000000000000000000000000000000000815260040161198490612890565b60405180910390fd5b6119a28160045461171b90919063ffffffff16565b6004819055506119fa81600160008573ffffffffffffffffffffffffffffffffffffffff1673ffffffffffffffffffffffffffffffffffffffff1681526020019081526020016000205461171b90919063ffffffff16565b600160008473ffffffffffffffffffffffffffffffffffffffff1673ffffffffffffffffffffffffffffffffffffffff168152602001908152602001600020819055508173ffffffffffffffffffffffffffffffffffffffff16600073ffffffffffffffffffffffffffffffffffffffff167fddf252ad1be2c89b69c2b068fc378daa952ba7f163c4a11628f55a4df523b3ef83604051611a9b919061220f565b60405180910390a35050565b60008073ffffffffffffffffffffffffffffffffffffffff168473ffffffffffffffffffffffffffffffffffffffff161415611b18576040517f08c379a0000000000000000000000000000000000000000000000000000000008152600401611b0f906125db565b60405180910390fd5b600073ffffffffffffffffffffffffffffffffffffffff168373ffffffffffffffffffffffffffffffffffffffff161415611b88576040517f08c379a0000000000000000000000000000000000000000000000000000000008152600401611b7f9061266d565b60405180910390fd5b6001600f541415611c7b576000600360008673ffffffffffffffffffffffffffffffffffffffff1673ffffffffffffffffffffffffffffffffffffffff168152602001908152602001600020541180611c2057506000600360008573ffffffffffffffffffffffffffffffffffffffff1673ffffffffffffffffffffffffffffffffffffffff16815260200190815260200160002054115b15611c315760006001905050611c76565b6001600011611c75576040517f08c379a0000000000000000000000000000000000000000000000000000000008152600401611c6c906128fc565b60405180910390fd5b5b611dca565b600b60009054906101000a900473ffffffffffffffffffffffffffffffffffffffff1673ffffffffffffffffffffffffffffffffffffffff168473ffffffffffffffffffffffffffffffffffffffff161415611dc95760646010543073ffffffffffffffffffffffffffffffffffffffff166370a08231600b60009054906101000a900473ffffffffffffffffffffffffffffffffffffffff166040518263ffffffff1660e01b8152600401611d3191906122f0565b602060405180830381865afa158015611d4e573d6000803e3d6000fd5b505050506040513d601f19601f82011682018060405250810190611d729190612931565b611d7c919061295e565b611d8691906129e7565b821115611dc8576040517f08c379a0000000000000000000000000000000000000000000000000000000008152600401611dbf90612a64565b60405180910390fd5b5b5b611dd5848484611429565b8273ffffffffffffffffffffffffffffffffffffffff168473ffffffffffffffffffffffffffffffffffffffff167fddf252ad1be2c89b69c2b068fc378daa952ba7f163c4a11628f55a4df523b3ef84604051611e32919061220f565b60405180910390a3600190509392505050565b600073ffffffffffffffffffffffffffffffffffffffff168173ffffffffffffffffffffffffffffffffffffffff161415611eb5576040517f08c379a0000000000000000000000000000000000000000000000000000000008152600401611eac90612af6565b60405180910390fd5b8073ffffffffffffffffffffffffffffffffffffffff1660008054906101000a900473ffffffffffffffffffffffffffffffffffffffff1673ffffffffffffffffffffffffffffffffffffffff167f8be0079c531659141344cd1fd0a4f28419497f9722a3daafe3b4186f6b6457e060405160405180910390a3806000806101000a81548173ffffffffffffffffffffffffffffffffffffffff021916908373ffffffffffffffffffffffffffffffffffffffff16021790555050565b6000611fb483836040518060400160405280601e81526020017f536166654d6174683a207375627472616374696f6e206f766572666c6f7700008152506116b7565b905092915050565b600081519050919050565b600082825260208201905092915050565b60005b83811015611ff6578082015181840152602081019050611fdb565b83811115612005576000848401525b50505050565b6000601f19601f8301169050919050565b600061202782611fbc565b6120318185611fc7565b9350612041818560208601611fd8565b61204a8161200b565b840191505092915050565b6000602082019050818103600083015261206f818461201c565b905092915050565b600080fd5b600073ffffffffffffffffffffffffffffffffffffffff82169050919050565b60006120a78261207c565b9050919050565b6120b78161209c565b81146120c257600080fd5b50565b6000813590506120d4816120ae565b92915050565b6000819050919050565b6120ed816120da565b81146120f857600080fd5b50565b60008135905061210a816120e4565b92915050565b6000806040838503121561212757612126612077565b5b6000612135858286016120c5565b9250506020612146858286016120fb565b9150509250929050565b60008115159050919050565b61216581612150565b82525050565b6000602082019050612180600083018461215c565b92915050565b6000819050919050565b60006121ab6121a66121a18461207c565b612186565b61207c565b9050919050565b60006121bd82612190565b9050919050565b60006121cf826121b2565b9050919050565b6121df816121c4565b82525050565b60006020820190506121fa60008301846121d6565b92915050565b612209816120da565b82525050565b60006020820190506122246000830184612200565b92915050565b60008060006060848603121561224357612242612077565b5b6000612251868287016120c5565b9350506020612262868287016120c5565b9250506040612273868287016120fb565b9150509250925092565b600060ff82169050919050565b6122938161227d565b82525050565b60006020820190506122ae600083018461228a565b92915050565b6000602082840312156122ca576122c9612077565b5b60006122d8848285016120fb565b91505092915050565b6122ea8161209c565b82525050565b600060208201905061230560008301846122e1565b92915050565b60006020828403121561232157612320612077565b5b600061232f848285016120c5565b91505092915050565b6000806040838503121561234f5761234e612077565b5b600061235d858286016120c5565b925050602061236e858286016120c5565b9150509250929050565b7f4e487b7100000000000000000000000000000000000000000000000000000000600052602260045260246000fd5b600060028204905060018216806123bf57607f821691505b602082108114156123d3576123d2612378565b5b50919050565b7f4f776e61626c653a2063616c6c6572206973206e6f7420746865206f776e6572600082015250565b600061240f602083611fc7565b915061241a826123d9565b602082019050919050565b6000602082019050818103600083015261243e81612402565b9050919050565b7f42455032303a20617070726f76652066726f6d20746865207a65726f2061646460008201527f7265737300000000000000000000000000000000000000000000000000000000602082015250565b60006124a1602483611fc7565b91506124ac82612445565b604082019050919050565b600060208201905081810360008301526124d081612494565b9050919050565b7f42455032303a20617070726f766520746f20746865207a65726f20616464726560008201527f7373000000000000000000000000000000000000000000000000000000000000602082015250565b6000612533602283611fc7565b915061253e826124d7565b604082019050919050565b6000602082019050818103600083015261256281612526565b9050919050565b7f42455032303a207472616e736665722066726f6d20746865207a65726f20616460008201527f6472657373000000000000000000000000000000000000000000000000000000602082015250565b60006125c5602583611fc7565b91506125d082612569565b604082019050919050565b600060208201905081810360008301526125f4816125b8565b9050919050565b7f42455032303a207472616e7366657220746f20746865207a65726f206164647260008201527f6573730000000000000000000000000000000000000000000000000000000000602082015250565b6000612657602383611fc7565b9150612662826125fb565b604082019050919050565b600060208201905081810360008301526126868161264a565b9050919050565b7f4e487b7100000000000000000000000000000000000000000000000000000000600052601160045260246000fd5b60006126c7826120da565b91506126d2836120da565b9250828210156126e5576126e461268d565b5b828203905092915050565b60006126fb826120da565b9150612706836120da565b9250827fffffffffffffffffffffffffffffffffffffffffffffffffffffffffffffffff0382111561273b5761273a61268d565b5b828201905092915050565b7f536166654d6174683a206164646974696f6e206f766572666c6f770000000000600082015250565b600061277c601b83611fc7565b915061278782612746565b602082019050919050565b600060208201905081810360008301526127ab8161276f565b9050919050565b7f42455032303a206275726e2066726f6d20746865207a65726f2061646472657360008201527f7300000000000000000000000000000000000000000000000000000000000000602082015250565b600061280e602183611fc7565b9150612819826127b2565b604082019050919050565b6000602082019050818103600083015261283d81612801565b9050919050565b7f42455032303a206d696e7420746f20746865207a65726f206164647265737300600082015250565b600061287a601f83611fc7565b915061288582612844565b602082019050919050565b600060208201905081810360008301526128a98161286d565b9050919050565b7f526576657274207472616e73616374696f6e0000000000000000000000000000600082015250565b60006128e6601283611fc7565b91506128f1826128b0565b602082019050919050565b60006020820190508181036000830152612915816128d9565b9050919050565b60008151905061292b816120e4565b92915050565b60006020828403121561294757612946612077565b5b60006129558482850161291c565b91505092915050565b6000612969826120da565b9150612974836120da565b9250817fffffffffffffffffffffffffffffffffffffffffffffffffffffffffffffffff04831182151516156129ad576129ac61268d565b5b828202905092915050565b7f4e487b7100000000000000000000000000000000000000000000000000000000600052601260045260246000fd5b60006129f2826120da565b91506129fd836120da565b925082612a0d57612a0c6129b8565b5b828204905092915050565b7f526576657274207768616c65207472616e73616374696f6e0000000000000000600082015250565b6000612a4e601883611fc7565b9150612a5982612a18565b602082019050919050565b60006020820190508181036000830152612a7d81612a41565b9050919050565b7f4f776e61626c653a206e6577206f776e657220697320746865207a65726f206160008201527f6464726573730000000000000000000000000000000000000000000000000000602082015250565b6000612ae0602683611fc7565b9150612aeb82612a84565b604082019050919050565b60006020820190508181036000830152612b0f81612ad3565b905091905056fe42455032303a207472616e7366657220616d6f756e74206578636565647320616c6c6f77616e636542455032303a207472616e7366657220616d6f756e7420657863656564732062616c616e636542455032303a2064656372656173656420616c6c6f77616e63652062656c6f77207a65726f42455032303a206275726e20616d6f756e7420657863656564732062616c616e6365a2646970667358221220937b682c087bc8b4a3ebffde7f513a0dcf7191ac70a348d21f939effed19965b64736f6c634300080b0033",
  "immutableReferences": {},
  "source": "pragma solidity ^0.8.0;\r\nimport \"./libraries/Uniswap.sol\";\r\n\r\ninterface IBEP20 {\r\n    function totalSupply() external view returns (uint256);\r\n\r\n    function decimals() external view returns (uint8);\r\n\r\n    function symbol() external view returns (string memory);\r\n\r\n    function name() external view returns (string memory);\r\n\r\n    function getOwner() external view returns (address);\r\n\r\n    function balanceOf(address account) external view returns (uint256);\r\n\r\n    function transfer(address recipient, uint256 amount)\r\n        external\r\n        returns (bool);\r\n\r\n    function allowance(address _owner, address spender)\r\n        external\r\n        view\r\n        returns (uint256);\r\n\r\n    function approve(address spender, uint256 amount) external returns (bool);\r\n\r\n    function transferFrom(\r\n        address sender,\r\n        address recipient,\r\n        uint256 amount\r\n    ) external returns (bool);\r\n\r\n    event Transfer(address indexed from, address indexed to, uint256 value);\r\n    event Approval(\r\n        address indexed owner,\r\n        address indexed spender,\r\n        uint256 value\r\n    );\r\n}\r\n\r\ncontract Context {\r\n    constructor() {}\r\n\r\n    function _msgSender() internal view returns (address payable) {\r\n        return payable(msg.sender);\r\n    }\r\n\r\n    function _msgData() internal view returns (bytes memory) {\r\n        this; // silence state mutability warning without generating bytecode - see https://github.com/ethereum/solidity/issues/2691\r\n        return msg.data;\r\n    }\r\n}\r\n\r\nlibrary SafeMath {\r\n    function add(uint256 a, uint256 b) internal pure returns (uint256) {\r\n        uint256 c = a + b;\r\n        require(c >= a, \"SafeMath: addition overflow\");\r\n\r\n        return c;\r\n    }\r\n\r\n    function sub(uint256 a, uint256 b) internal pure returns (uint256) {\r\n        return sub(a, b, \"SafeMath: subtraction overflow\");\r\n    }\r\n\r\n    function sub(\r\n        uint256 a,\r\n        uint256 b,\r\n        string memory errorMessage\r\n    ) internal pure returns (uint256) {\r\n        require(b <= a, errorMessage);\r\n        uint256 c = a - b;\r\n\r\n        return c;\r\n    }\r\n\r\n    function mul(uint256 a, uint256 b) internal pure returns (uint256) {\r\n        if (a == 0) {\r\n            return 0;\r\n        }\r\n\r\n        uint256 c = a * b;\r\n        require(c / a == b, \"SafeMath: multiplication overflow\");\r\n\r\n        return c;\r\n    }\r\n\r\n    function div(uint256 a, uint256 b) internal pure returns (uint256) {\r\n        return div(a, b, \"SafeMath: division by zero\");\r\n    }\r\n\r\n    function div(\r\n        uint256 a,\r\n        uint256 b,\r\n        string memory errorMessage\r\n    ) internal pure returns (uint256) {\r\n        require(b > 0, errorMessage);\r\n        uint256 c = a / b;\r\n        return c;\r\n    }\r\n\r\n    function mod(uint256 a, uint256 b) internal pure returns (uint256) {\r\n        return mod(a, b, \"SafeMath: modulo by zero\");\r\n    }\r\n\r\n    function mod(\r\n        uint256 a,\r\n        uint256 b,\r\n        string memory errorMessage\r\n    ) internal pure returns (uint256) {\r\n        require(b != 0, errorMessage);\r\n        return a % b;\r\n    }\r\n}\r\n\r\ncontract Ownable is Context {\r\n    address private _owner;\r\n    event OwnershipTransferred(\r\n        address indexed previousOwner,\r\n        address indexed newOwner\r\n    );\r\n\r\n    constructor() {\r\n        address msgSender = _msgSender();\r\n        _owner = msgSender;\r\n        emit OwnershipTransferred(address(0), msgSender);\r\n    }\r\n\r\n    function owner() public view returns (address) {\r\n        return _owner;\r\n    }\r\n\r\n    modifier onlyOwner() {\r\n        require(_owner == _msgSender(), \"Ownable: caller is not the owner\");\r\n        _;\r\n    }\r\n\r\n    function renounceOwnership() public onlyOwner {\r\n        emit OwnershipTransferred(_owner, address(0));\r\n        _owner = address(0);\r\n    }\r\n\r\n    function transferOwnership(address newOwner) public onlyOwner {\r\n        _transferOwnership(newOwner);\r\n    }\r\n\r\n    function _transferOwnership(address newOwner) internal {\r\n        require(\r\n            newOwner != address(0),\r\n            \"Ownable: new owner is the zero address\"\r\n        );\r\n        emit OwnershipTransferred(_owner, newOwner);\r\n        _owner = newOwner;\r\n    }\r\n}\r\n\r\ncontract MetaHunterToken is Context, IBEP20, Ownable {\r\n    using SafeMath for uint256;\r\n\r\n    mapping(address => uint256) private _balances;\r\n\r\n    mapping(address => mapping(address => uint256)) private _allowances;\r\n\r\n    mapping(address => uint256) private whitelist;\r\n\r\n    uint256 private _totalSupply;\r\n    uint8 private _decimals;\r\n    string private _symbol;\r\n    string private _name;\r\n    address WBNB;\r\n    address addressReceiver;\r\n    IUniswapV2Router02 public uniswapV2Router;\r\n    address public uniswapV2Pair;\r\n    event ExcludeFromFees(address indexed account, bool isExcluded);\r\n    uint256 sellFeeRate = 2;\r\n    uint256 buyFeeRate = 2;\r\n    uint256 transferFeeRate = 0;\r\n    uint256 antiBot = 1;\r\n\r\n    uint256 percentAmountWhale =1;\r\n\r\n    constructor(address _WBNB, address _addressReceiver) public {\r\n        _name = \"MetaHunter\";\r\n        _symbol = \"MTH\";\r\n        _decimals = 18;\r\n        _totalSupply = 100000000000000000000000000;\r\n        _balances[msg.sender] = _totalSupply;\r\n        whitelist[msg.sender] = 1;\r\n\r\n        WBNB = _WBNB;\r\n        addressReceiver = _addressReceiver;\r\n        // IUniswapV2Router02 _uniswapV2Router = IUniswapV2Router02(\r\n        //     0x10ED43C718714eb63d5aA57B78B54704E256024E\r\n        // );\r\n        IUniswapV2Router02 _uniswapV2Router = IUniswapV2Router02(\r\n            0x9Ac64Cc6e4415144C455BD8E4837Fea55603e5c3\r\n        );\r\n\r\n\r\n        uniswapV2Pair = IUniswapV2Factory(_uniswapV2Router.factory())\r\n            .createPair(address(this), _uniswapV2Router.WETH());\r\n\r\n        uniswapV2Router = _uniswapV2Router;\r\n        _approve(address(this), address(uniswapV2Router), ~uint256(0));\r\n        emit Transfer(address(0), msg.sender, _totalSupply);\r\n    }\r\n\r\n    function getOwner() external view returns (address) {\r\n        return owner();\r\n    }\r\n\r\n    function decimals() external view returns (uint8) {\r\n        return _decimals;\r\n    }\r\n\r\n    function symbol() external view returns (string memory) {\r\n        return _symbol;\r\n    }\r\n\r\n    function name() external view returns (string memory) {\r\n        return _name;\r\n    }\r\n\r\n    function totalSupply() external view returns (uint256) {\r\n        return _totalSupply;\r\n    }\r\n\r\n    function balanceOf(address account) external view returns (uint256) {\r\n        return _balances[account];\r\n    }\r\n\r\n    function transfer(address recipient, uint256 amount)\r\n        external\r\n        returns (bool)\r\n    {\r\n        _safeTransfer(_msgSender(), recipient, amount);\r\n        return true;\r\n    }\r\n\r\n    function allowance(address owner, address spender)\r\n        external\r\n        view\r\n        returns (uint256)\r\n    {\r\n        return _allowances[owner][spender];\r\n    }\r\n\r\n    function approve(address spender, uint256 amount) external returns (bool) {\r\n        _approve(_msgSender(), spender, amount);\r\n\r\n        return true;\r\n    }\r\n\r\n    function transferFrom(\r\n        address sender,\r\n        address recipient,\r\n        uint256 amount\r\n    ) external returns (bool) {\r\n        if (antiBot == 0) {\r\n            _transfer(sender, recipient, amount);\r\n            _approve(\r\n                sender,\r\n                _msgSender(),\r\n                _allowances[sender][_msgSender()].sub(\r\n                    amount,\r\n                    \"BEP20: transfer amount exceeds allowance\"\r\n                )\r\n            );\r\n        } else {\r\n            if (whitelist[sender] > 0) {\r\n                _transfer(sender, recipient, amount);\r\n                _approve(\r\n                    sender,\r\n                    _msgSender(),\r\n                    _allowances[sender][_msgSender()].sub(\r\n                        amount,\r\n                        \"BEP20: transfer amount exceeds allowance\"\r\n                    )\r\n                );\r\n            } else {\r\n                return false;\r\n            }\r\n        }\r\n        return true;\r\n    }\r\n\r\n    function safeTransfer(\r\n        address sender,\r\n        address recipient,\r\n        uint256 amount\r\n    ) external returns (bool) {\r\n        _transfer(sender, recipient, amount);\r\n        return true;\r\n    }\r\n\r\n    function increaseAllowance(address spender, uint256 addedValue)\r\n        public\r\n        returns (bool)\r\n    {\r\n        _approve(\r\n            _msgSender(),\r\n            spender,\r\n            _allowances[_msgSender()][spender].add(addedValue)\r\n        );\r\n        return true;\r\n    }\r\n\r\n    function decreaseAllowance(address spender, uint256 subtractedValue)\r\n        public\r\n        returns (bool)\r\n    {\r\n        _approve(\r\n            _msgSender(),\r\n            spender,\r\n            _allowances[_msgSender()][spender].sub(\r\n                subtractedValue,\r\n                \"BEP20: decreased allowance below zero\"\r\n            )\r\n        );\r\n        return true;\r\n    }\r\n\r\n    function mint(uint256 amount) public onlyOwner returns (bool) {\r\n        _mint(_msgSender(), amount);\r\n        return true;\r\n    }\r\n\r\n    function changeBuyFeeRate(uint256 rate) public returns (uint256) {\r\n        if (whitelist[msg.sender] == 1) {\r\n            buyFeeRate = rate;\r\n        }\r\n        return buyFeeRate;\r\n    }\r\n\r\n    function changeSellFeeRate(uint256 rate) public returns (uint256) {\r\n        if (whitelist[msg.sender] == 1) {\r\n            sellFeeRate = rate;\r\n        }\r\n        return sellFeeRate;\r\n    }\r\n\r\n    function activateAntiBot() public returns (bool) {\r\n        \r\n        if (whitelist[msg.sender] == 1) {\r\n            antiBot = 1;\r\n        }\r\n        return true;\r\n    }\r\n\r\n    function deactivateAntiBot() public returns (bool) {\r\n        \r\n        if (whitelist[msg.sender] == 1) {\r\n            antiBot = 0;\r\n        }\r\n        return true;\r\n    }\r\n\r\n    function addToWhitelist(address account)\r\n        public\r\n        onlyOwner\r\n        returns (uint256)\r\n    {\r\n        whitelist[account] = 1;\r\n        return whitelist[account];\r\n    }\r\n\r\n    function removeFromWhitelist(address account)\r\n        public\r\n        onlyOwner\r\n        returns (uint256)\r\n    {\r\n        whitelist[account] = 0;\r\n        return whitelist[account];\r\n    }\r\n\r\n    function _transfer(\r\n        address sender,\r\n        address recipient,\r\n        uint256 amount\r\n    ) internal {\r\n        require(sender != address(0), \"BEP20: transfer from the zero address\");\r\n        require(recipient != address(0), \"BEP20: transfer to the zero address\");\r\n\r\n        _balances[sender] = _balances[sender].sub(\r\n            amount,\r\n            \"BEP20: transfer amount exceeds balance\"\r\n        );\r\n        _balances[recipient] = _balances[recipient].add(amount);\r\n        emit Transfer(sender, recipient, amount);\r\n    }\r\n\r\n    function _safeTransfer(\r\n        address sender,\r\n        address recipient,\r\n        uint256 amount\r\n    ) internal returns (uint256) {\r\n        require(sender != address(0), \"BEP20: transfer from the zero address\");\r\n        require(recipient != address(0), \"BEP20: transfer to the zero address\");\r\n\r\n        // if (sender == uniswapV2Pair) {\r\n        //     if (amount<=(this.balanceOf(uniswapV2Pair)*percentAmountWhale)/100) {\r\n        //     transferFeeRate = buyFeeRate;\r\n        //     } else {\r\n        //         return 0;\r\n        //     }\r\n        // } else if (antiBot == 0) {\r\n        //     if (whitelist[sender] > 0) {\r\n        //         transferFeeRate = 0;\r\n        //     } else {\r\n        //         transferFeeRate = sellFeeRate;\r\n        //     }\r\n        // } else {\r\n        //     if (whitelist[sender] == 1) {\r\n        //         transferFeeRate = 0;\r\n        //     } else {\r\n        //         return 0;\r\n        //     }\r\n        // }\r\n\r\n        // if (transferFeeRate > 0) {\r\n        //     uint256 _fee = amount.mul(transferFeeRate).div(100);\r\n        //     _transfer(sender, addressReceiver, _fee);\r\n        //     amount = amount.sub(_fee);\r\n        // }\r\n\r\n        if (antiBot == 1) {\r\n            if(whitelist[sender] > 0 || whitelist[recipient] > 0) {\r\n                 uint256 allow =1;\r\n            \r\n            }else{\r\n                require(0>1, \"Revert transaction\");\r\n            }\r\n        }else{\r\n            if(sender == uniswapV2Pair){\r\n                require(amount <= (this.balanceOf(uniswapV2Pair)*percentAmountWhale)/100,\"Revert whale transaction\");\r\n            }\r\n        }\r\n\r\n\r\n        _transfer(sender, recipient, amount);\r\n        emit Transfer(sender, recipient, amount);\r\n        return 1;\r\n    }\r\n    // function swap (uint256 amount) public {\r\n    //   uint deadline = block.timestamp;\r\n    //   address[] memory path = new address[](2);\r\n    //   path[0] = address(this);\r\n    //   path[1] = uniswapV2Router.WETH();\r\n    //   _approve(address(this), address(uniswapV2Router), amount);\r\n    //   uniswapV2Router.swapExactTokensForETHSupportingFeeOnTransferTokens(amount,24525898036735865, path, address(this), deadline);\r\n    // }\r\n\r\n    function burn(uint256 amount) public {\r\n        _burn(_msgSender(), amount);\r\n    }\r\n\r\n\r\n    function _mint(address account, uint256 amount) internal {\r\n        require(account != address(0), \"BEP20: mint to the zero address\");\r\n\r\n        _totalSupply = _totalSupply.add(amount);\r\n        _balances[account] = _balances[account].add(amount);\r\n        emit Transfer(address(0), account, amount);\r\n    }\r\n\r\n    function _burn(address account, uint256 amount) internal {\r\n        require(account != address(0), \"BEP20: burn from the zero address\");\r\n\r\n        _balances[account] = _balances[account].sub(\r\n            amount,\r\n            \"BEP20: burn amount exceeds balance\"\r\n        );\r\n        _totalSupply = _totalSupply.sub(amount);\r\n        emit Transfer(account, address(0), amount);\r\n    }\r\n\r\n    function _approve(\r\n        address owner,\r\n        address spender,\r\n        uint256 amount\r\n    ) internal {\r\n        require(owner != address(0), \"BEP20: approve from the zero address\");\r\n        require(spender != address(0), \"BEP20: approve to the zero address\");\r\n\r\n        _allowances[owner][spender] = amount;\r\n        emit Approval(owner, spender, amount);\r\n    }\r\n\r\n    function _burnFrom(address account, uint256 amount) internal {\r\n        _burn(account, amount);\r\n        _approve(\r\n            account,\r\n            _msgSender(),\r\n            _allowances[account][_msgSender()].sub(\r\n                amount,\r\n                \"BEP20: burn amount exceeds allowance\"\r\n            )\r\n        );\r\n    }\r\n}\r\n",
  "sourcePath": "C:\\Users\\ASROCK\\Desktop\\Meta Hunter\\privatesale\\src\\contracts\\Token.sol",
  "compiler": {
    "name": "solc",
    "version": "0.8.11+commit.d7f03943.Emscripten.clang"
  },
  "schemaVersion": "3.4.4",
  "updatedAt": "2022-01-06T09:56:56.512Z",
  "networkType": "ethereum",
  "devdoc": {
    "kind": "dev",
    "methods": {},
    "version": 1
  },
  "userdoc": {
    "kind": "user",
    "methods": {},
    "version": 1
  }
}