{
  "contractName": "preIdo",
  "abi": [
    {
      "inputs": [
        {
          "internalType": "address",
          "name": "_token",
          "type": "address"
        },
        {
          "internalType": "uint256",
          "name": "_publicTime",
          "type": "uint256"
        },
        {
          "internalType": "uint256",
          "name": "_startTime",
          "type": "uint256"
        },
        {
          "internalType": "uint256",
          "name": "_cliff",
          "type": "uint256"
        },
        {
          "internalType": "uint256",
          "name": "_totalPeriods",
          "type": "uint256"
        },
        {
          "internalType": "uint256",
          "name": "_timePerPeriod",
          "type": "uint256"
        },
        {
          "internalType": "uint256",
          "name": "_FirstReturn",
          "type": "uint256"
        },
        {
          "internalType": "uint256",
          "name": "_exchangeRate",
          "type": "uint256"
        }
      ],
      "stateMutability": "nonpayable",
      "type": "constructor"
    },
    {
      "anonymous": false,
      "inputs": [
        {
          "indexed": false,
          "internalType": "address",
          "name": "user",
          "type": "address"
        },
        {
          "indexed": false,
          "internalType": "uint256",
          "name": "amount",
          "type": "uint256"
        }
      ],
      "name": "ClaimFunds",
      "type": "event"
    },
    {
      "anonymous": false,
      "inputs": [
        {
          "indexed": false,
          "internalType": "address",
          "name": "user",
          "type": "address"
        },
        {
          "indexed": false,
          "internalType": "uint256",
          "name": "amount",
          "type": "uint256"
        }
      ],
      "name": "DonateEvent",
      "type": "event"
    },
    {
      "anonymous": false,
      "inputs": [
        {
          "indexed": true,
          "internalType": "address",
          "name": "previousOwner",
          "type": "address"
        },
        {
          "indexed": true,
          "internalType": "address",
          "name": "newOwner",
          "type": "address"
        }
      ],
      "name": "OwnershipTransferred",
      "type": "event"
    },
    {
      "anonymous": false,
      "inputs": [
        {
          "indexed": false,
          "internalType": "address",
          "name": "receiver",
          "type": "address"
        },
        {
          "indexed": false,
          "internalType": "uint256",
          "name": "tokensClaimed",
          "type": "uint256"
        }
      ],
      "name": "TokensClaimed",
      "type": "event"
    },
    {
      "anonymous": false,
      "inputs": [
        {
          "indexed": false,
          "internalType": "uint256",
          "name": "totalTokens",
          "type": "uint256"
        }
      ],
      "name": "VestingFunded",
      "type": "event"
    },
    {
      "anonymous": false,
      "inputs": [],
      "name": "VestingStopped",
      "type": "event"
    },
    {
      "inputs": [],
      "name": "FirstReturn",
      "outputs": [
        {
          "internalType": "uint256",
          "name": "",
          "type": "uint256"
        }
      ],
      "stateMutability": "view",
      "type": "function"
    },
    {
      "inputs": [],
      "name": "TotalFlag",
      "outputs": [
        {
          "internalType": "uint256",
          "name": "",
          "type": "uint256"
        }
      ],
      "stateMutability": "view",
      "type": "function"
    },
    {
      "inputs": [],
      "name": "_receiver",
      "outputs": [
        {
          "internalType": "address",
          "name": "",
          "type": "address"
        }
      ],
      "stateMutability": "view",
      "type": "function"
    },
    {
      "inputs": [],
      "name": "cliff",
      "outputs": [
        {
          "internalType": "uint256",
          "name": "",
          "type": "uint256"
        }
      ],
      "stateMutability": "view",
      "type": "function"
    },
    {
      "inputs": [],
      "name": "exchangeRate",
      "outputs": [
        {
          "internalType": "uint256",
          "name": "",
          "type": "uint256"
        }
      ],
      "stateMutability": "view",
      "type": "function"
    },
    {
      "inputs": [],
      "name": "numberOfAccounts",
      "outputs": [
        {
          "internalType": "uint256",
          "name": "",
          "type": "uint256"
        }
      ],
      "stateMutability": "view",
      "type": "function"
    },
    {
      "inputs": [],
      "name": "offerCount",
      "outputs": [
        {
          "internalType": "uint256",
          "name": "",
          "type": "uint256"
        }
      ],
      "stateMutability": "view",
      "type": "function"
    },
    {
      "inputs": [],
      "name": "owner",
      "outputs": [
        {
          "internalType": "address",
          "name": "",
          "type": "address"
        }
      ],
      "stateMutability": "view",
      "type": "function"
    },
    {
      "inputs": [],
      "name": "publicTime",
      "outputs": [
        {
          "internalType": "uint256",
          "name": "",
          "type": "uint256"
        }
      ],
      "stateMutability": "view",
      "type": "function"
    },
    {
      "inputs": [],
      "name": "renounceOwnership",
      "outputs": [],
      "stateMutability": "nonpayable",
      "type": "function"
    },
    {
      "inputs": [],
      "name": "startTime",
      "outputs": [
        {
          "internalType": "uint256",
          "name": "",
          "type": "uint256"
        }
      ],
      "stateMutability": "view",
      "type": "function"
    },
    {
      "inputs": [],
      "name": "timePerPeriod",
      "outputs": [
        {
          "internalType": "uint256",
          "name": "",
          "type": "uint256"
        }
      ],
      "stateMutability": "view",
      "type": "function"
    },
    {
      "inputs": [
        {
          "internalType": "address",
          "name": "",
          "type": "address"
        }
      ],
      "name": "tokensClaimed",
      "outputs": [
        {
          "internalType": "uint256",
          "name": "",
          "type": "uint256"
        }
      ],
      "stateMutability": "view",
      "type": "function"
    },
    {
      "inputs": [],
      "name": "totalPeriods",
      "outputs": [
        {
          "internalType": "uint256",
          "name": "",
          "type": "uint256"
        }
      ],
      "stateMutability": "view",
      "type": "function"
    },
    {
      "inputs": [],
      "name": "totalTokens",
      "outputs": [
        {
          "internalType": "uint256",
          "name": "",
          "type": "uint256"
        }
      ],
      "stateMutability": "view",
      "type": "function"
    },
    {
      "inputs": [
        {
          "internalType": "address",
          "name": "newOwner",
          "type": "address"
        }
      ],
      "name": "transferOwnership",
      "outputs": [],
      "stateMutability": "nonpayable",
      "type": "function"
    },
    {
      "inputs": [
        {
          "internalType": "address",
          "name": "",
          "type": "address"
        }
      ],
      "name": "userClaim",
      "outputs": [
        {
          "internalType": "uint256",
          "name": "",
          "type": "uint256"
        }
      ],
      "stateMutability": "view",
      "type": "function"
    },
    {
      "inputs": [
        {
          "internalType": "address",
          "name": "",
          "type": "address"
        }
      ],
      "name": "userFunds",
      "outputs": [
        {
          "internalType": "uint256",
          "name": "",
          "type": "uint256"
        }
      ],
      "stateMutability": "view",
      "type": "function"
    },
    {
      "inputs": [
        {
          "internalType": "address",
          "name": "",
          "type": "address"
        }
      ],
      "name": "userRemain",
      "outputs": [
        {
          "internalType": "uint256",
          "name": "",
          "type": "uint256"
        }
      ],
      "stateMutability": "view",
      "type": "function"
    },
    {
      "inputs": [
        {
          "internalType": "uint256",
          "name": "",
          "type": "uint256"
        }
      ],
      "name": "userToken",
      "outputs": [
        {
          "internalType": "address",
          "name": "",
          "type": "address"
        }
      ],
      "stateMutability": "view",
      "type": "function"
    },
    {
      "inputs": [
        {
          "internalType": "address",
          "name": "",
          "type": "address"
        }
      ],
      "name": "userWhitelist",
      "outputs": [
        {
          "internalType": "uint256",
          "name": "",
          "type": "uint256"
        }
      ],
      "stateMutability": "view",
      "type": "function"
    },
    {
      "inputs": [
        {
          "internalType": "uint8",
          "name": "c",
          "type": "uint8"
        }
      ],
      "name": "fromHexChar",
      "outputs": [
        {
          "internalType": "uint8",
          "name": "",
          "type": "uint8"
        }
      ],
      "stateMutability": "pure",
      "type": "function"
    },
    {
      "inputs": [
        {
          "internalType": "string",
          "name": "s",
          "type": "string"
        }
      ],
      "name": "hexStringToAddress",
      "outputs": [
        {
          "internalType": "bytes",
          "name": "",
          "type": "bytes"
        }
      ],
      "stateMutability": "pure",
      "type": "function"
    },
    {
      "inputs": [
        {
          "internalType": "string",
          "name": "s",
          "type": "string"
        }
      ],
      "name": "toAddress",
      "outputs": [
        {
          "internalType": "address",
          "name": "",
          "type": "address"
        }
      ],
      "stateMutability": "pure",
      "type": "function"
    },
    {
      "inputs": [],
      "name": "Buy",
      "outputs": [],
      "stateMutability": "payable",
      "type": "function"
    },
    {
      "inputs": [
        {
          "internalType": "address[]",
          "name": "accounts",
          "type": "address[]"
        }
      ],
      "name": "addMultiWhitelist",
      "outputs": [],
      "stateMutability": "nonpayable",
      "type": "function"
    },
    {
      "inputs": [
        {
          "internalType": "address",
          "name": "recipient",
          "type": "address"
        }
      ],
      "name": "addWhitelist",
      "outputs": [],
      "stateMutability": "nonpayable",
      "type": "function"
    },
    {
      "inputs": [],
      "name": "approveToken",
      "outputs": [],
      "stateMutability": "payable",
      "type": "function"
    },
    {
      "inputs": [
        {
          "internalType": "uint256",
          "name": "_totalTokens",
          "type": "uint256"
        }
      ],
      "name": "fundVesting",
      "outputs": [],
      "stateMutability": "nonpayable",
      "type": "function"
    },
    {
      "inputs": [
        {
          "internalType": "address",
          "name": "receiver",
          "type": "address"
        }
      ],
      "name": "claimTokens",
      "outputs": [],
      "stateMutability": "nonpayable",
      "type": "function"
    },
    {
      "inputs": [
        {
          "internalType": "address",
          "name": "receiver",
          "type": "address"
        }
      ],
      "name": "stopVesting",
      "outputs": [],
      "stateMutability": "nonpayable",
      "type": "function"
    },
    {
      "inputs": [
        {
          "internalType": "address",
          "name": "newReceiver",
          "type": "address"
        }
      ],
      "name": "changeReceiver",
      "outputs": [],
      "stateMutability": "nonpayable",
      "type": "function"
    },
    {
      "inputs": [],
      "name": "Vesting",
      "outputs": [],
      "stateMutability": "nonpayable",
      "type": "function"
    }
  ],
  "bytecode": "0x6080604052600160095560006012553480156200001b57600080fd5b50604051620036a2380380620036a283398181016040528101906200004191906200021e565b6000620000536200017160201b60201c565b9050806000806101000a81548173ffffffffffffffffffffffffffffffffffffffff021916908373ffffffffffffffffffffffffffffffffffffffff1602179055508073ffffffffffffffffffffffffffffffffffffffff16600073ffffffffffffffffffffffffffffffffffffffff167f8be0079c531659141344cd1fd0a4f28419497f9722a3daafe3b4186f6b6457e060405160405180910390a35087601360006101000a81548173ffffffffffffffffffffffffffffffffffffffff021916908373ffffffffffffffffffffffffffffffffffffffff1602179055508660028190555081600a819055508560048190555084600581905550836006819055508260078190555080600b819055505050505050505050620002e7565b600033905090565b600080fd5b600073ffffffffffffffffffffffffffffffffffffffff82169050919050565b6000620001ab826200017e565b9050919050565b620001bd816200019e565b8114620001c957600080fd5b50565b600081519050620001dd81620001b2565b92915050565b6000819050919050565b620001f881620001e3565b81146200020457600080fd5b50565b6000815190506200021881620001ed565b92915050565b600080600080600080600080610100898b03121562000242576200024162000179565b5b6000620002528b828c01620001cc565b9850506020620002658b828c0162000207565b9750506040620002788b828c0162000207565b96505060606200028b8b828c0162000207565b95505060806200029e8b828c0162000207565b94505060a0620002b18b828c0162000207565b93505060c0620002c48b828c0162000207565b92505060e0620002d78b828c0162000207565b9150509295985092959890939650565b6133ab80620002f76000396000f3fe6080604052600436106101ee5760003560e01c8063739135451161010d578063b13ef343116100a0578063df8de3e71161006f578063df8de3e7146106c5578063f12eceae146106ee578063f2fde38b1461072b578063f80f5dd514610754578063fea708f61461077d576101ee565b8063b13ef3431461061d578063c4fe42dc14610634578063cf0f0e9c1461065d578063d741b9c314610688576101ee565b80638387c6e1116100dc5780638387c6e1146105a15780638da5cb5b146105de578063974c86b51461060957806399b71d5c14610613576101ee565b806373913545146104e557806378e979251461050e5780637e1c0c09146105395780637e4115ba14610564576101ee565b80633ba0b9a911610185578063547e3f0611610154578063547e3f061461042b5780635e41ab8814610454578063624601b614610491578063715018a6146104ce576101ee565b80633ba0b9a91461038157806349844061146103ac57806349e7f7f1146103d75780634e7e548914610402576101ee565b806313d033c0116101c157806313d033c0146102b15780631bdc608e146102dc5780632ecb20d3146103075780632f38751414610344576101ee565b806302964ff1146101f35780630a6b433f1461021e5780630f03e4c31461025b5780631115c24d14610286575b600080fd5b3480156101ff57600080fd5b506102086107a8565b6040516102159190612554565b60405180910390f35b34801561022a57600080fd5b50610245600480360381019061024091906125af565b6107ce565b60405161025291906125f5565b60405180910390f35b34801561026757600080fd5b506102706107e6565b60405161027d91906125f5565b60405180910390f35b34801561029257600080fd5b5061029b6107ec565b6040516102a891906125f5565b60405180910390f35b3480156102bd57600080fd5b506102c66107f2565b6040516102d391906125f5565b60405180910390f35b3480156102e857600080fd5b506102f16107f8565b6040516102fe91906125f5565b60405180910390f35b34801561031357600080fd5b5061032e60048036038101906103299190612649565b6107fe565b60405161033b9190612685565b60405180910390f35b34801561035057600080fd5b5061036b600480360381019061036691906127e6565b610b6d565b60405161037891906128b7565b60405180910390f35b34801561038d57600080fd5b50610396610cf1565b6040516103a391906125f5565b60405180910390f35b3480156103b857600080fd5b506103c1610cf7565b6040516103ce91906125f5565b60405180910390f35b3480156103e357600080fd5b506103ec610cfd565b6040516103f991906125f5565b60405180910390f35b34801561040e57600080fd5b5061042960048036038101906104249190612939565b610d03565b005b34801561043757600080fd5b50610452600480360381019061044d91906125af565b610eba565b005b34801561046057600080fd5b5061047b600480360381019061047691906129b2565b610fcd565b6040516104889190612554565b60405180910390f35b34801561049d57600080fd5b506104b860048036038101906104b391906125af565b611000565b6040516104c591906125f5565b60405180910390f35b3480156104da57600080fd5b506104e3611018565b005b3480156104f157600080fd5b5061050c600480360381019061050791906129b2565b61116b565b005b34801561051a57600080fd5b50610523611394565b60405161053091906125f5565b60405180910390f35b34801561054557600080fd5b5061054e61139a565b60405161055b91906125f5565b60405180910390f35b34801561057057600080fd5b5061058b60048036038101906105869190612a35565b6113a0565b6040516105989190612554565b60405180910390f35b3480156105ad57600080fd5b506105c860048036038101906105c391906125af565b61145d565b6040516105d591906125f5565b60405180910390f35b3480156105ea57600080fd5b506105f3611475565b6040516106009190612554565b60405180910390f35b61061161149e565b005b61061b611813565b005b34801561062957600080fd5b5061063261194b565b005b34801561064057600080fd5b5061065b600480360381019061065691906125af565b611a5e565b005b34801561066957600080fd5b50610672611c8c565b60405161067f91906125f5565b60405180910390f35b34801561069457600080fd5b506106af60048036038101906106aa91906125af565b611c92565b6040516106bc91906125f5565b60405180910390f35b3480156106d157600080fd5b506106ec60048036038101906106e791906125af565b611caa565b005b3480156106fa57600080fd5b50610715600480360381019061071091906125af565b612151565b60405161072291906125f5565b60405180910390f35b34801561073757600080fd5b50610752600480360381019061074d91906125af565b612169565b005b34801561076057600080fd5b5061077b600480360381019061077691906125af565b61220a565b005b34801561078957600080fd5b50610792612252565b60405161079f91906125f5565b60405180910390f35b600360009054906101000a900473ffffffffffffffffffffffffffffffffffffffff1681565b600f6020528060005260406000206000915090505481565b60125481565b60015481565b60055481565b60025481565b60007f30000000000000000000000000000000000000000000000000000000000000007effffffffffffffffffffffffffffffffffffffffffffffffffffffffffffff19168260f81b7effffffffffffffffffffffffffffffffffffffffffffffffffffffffffffff1916101580156108de57507f39000000000000000000000000000000000000000000000000000000000000007effffffffffffffffffffffffffffffffffffffffffffffffffffffffffffff19168260f81b7effffffffffffffffffffffffffffffffffffffffffffffffffffffffffffff191611155b15610919577f300000000000000000000000000000000000000000000000000000000000000060f81c826109129190612ab1565b9050610b68565b7f61000000000000000000000000000000000000000000000000000000000000007effffffffffffffffffffffffffffffffffffffffffffffffffffffffffffff19168260f81b7effffffffffffffffffffffffffffffffffffffffffffffffffffffffffffff1916101580156109f757507f66000000000000000000000000000000000000000000000000000000000000007effffffffffffffffffffffffffffffffffffffffffffffffffffffffffffff19168260f81b7effffffffffffffffffffffffffffffffffffffffffffffffffffffffffffff191611155b15610a3e577f610000000000000000000000000000000000000000000000000000000000000060f81c82600a610a2d9190612ae5565b610a379190612ab1565b9050610b68565b7f41000000000000000000000000000000000000000000000000000000000000007effffffffffffffffffffffffffffffffffffffffffffffffffffffffffffff19168260f81b7effffffffffffffffffffffffffffffffffffffffffffffffffffffffffffff191610158015610b1c57507f46000000000000000000000000000000000000000000000000000000000000007effffffffffffffffffffffffffffffffffffffffffffffffffffffffffffff19168260f81b7effffffffffffffffffffffffffffffffffffffffffffffffffffffffffffff191611155b15610b63577f410000000000000000000000000000000000000000000000000000000000000060f81c82600a610b529190612ae5565b610b5c9190612ab1565b9050610b68565b600090505b919050565b60606000829050600060028251610b849190612b4b565b14610b8e57600080fd5b600060028251610b9e9190612b7c565b67ffffffffffffffff811115610bb757610bb66126bb565b5b6040519080825280601f01601f191660200182016040528015610be95781602001600182028036833780820191505090505b50905060005b60028351610bfd9190612b7c565b811015610ce657610c45836001836002610c179190612bad565b610c219190612c07565b81518110610c3257610c31612c5d565b5b602001015160f81c60f81b60f81c6107fe565b6010610c7c85846002610c589190612bad565b81518110610c6957610c68612c5d565b5b602001015160f81c60f81b60f81c6107fe565b610c869190612c8c565b610c909190612ae5565b60f81b828281518110610ca657610ca5612c5d565b5b60200101907effffffffffffffffffffffffffffffffffffffffffffffffffffffffffffff1916908160001a90535080610cdf90612cc7565b9050610bef565b508092505050919050565b600b5481565b60095481565b600a5481565b610d0b612258565b73ffffffffffffffffffffffffffffffffffffffff1660008054906101000a900473ffffffffffffffffffffffffffffffffffffffff1673ffffffffffffffffffffffffffffffffffffffff1614610d98576040517f08c379a0000000000000000000000000000000000000000000000000000000008152600401610d8f90612d6d565b60405180910390fd5b60005b82829050811015610eb5576001600e6000858585818110610dbf57610dbe612c5d565b5b9050602002016020810190610dd491906125af565b73ffffffffffffffffffffffffffffffffffffffff1673ffffffffffffffffffffffffffffffffffffffff16815260200190815260200160002081905550828282818110610e2557610e24612c5d565b5b9050602002016020810190610e3a91906125af565b600c6000601254815260200190815260200160002060006101000a81548173ffffffffffffffffffffffffffffffffffffffff021916908373ffffffffffffffffffffffffffffffffffffffff1602179055506001601254610e9c9190612c07565b6012819055508080610ead90612cc7565b915050610d9b565b505050565b610ec2612258565b73ffffffffffffffffffffffffffffffffffffffff1660008054906101000a900473ffffffffffffffffffffffffffffffffffffffff1673ffffffffffffffffffffffffffffffffffffffff1614610f4f576040517f08c379a0000000000000000000000000000000000000000000000000000000008152600401610f4690612d6d565b60405180910390fd5b600073ffffffffffffffffffffffffffffffffffffffff168173ffffffffffffffffffffffffffffffffffffffff161415610f8957600080fd5b80600360006101000a81548173ffffffffffffffffffffffffffffffffffffffff021916908373ffffffffffffffffffffffffffffffffffffffff16021790555050565b600c6020528060005260406000206000915054906101000a900473ffffffffffffffffffffffffffffffffffffffff1681565b60116020528060005260406000206000915090505481565b611020612258565b73ffffffffffffffffffffffffffffffffffffffff1660008054906101000a900473ffffffffffffffffffffffffffffffffffffffff1673ffffffffffffffffffffffffffffffffffffffff16146110ad576040517f08c379a00000000000000000000000000000000000000000000000000000000081526004016110a490612d6d565b60405180910390fd5b600073ffffffffffffffffffffffffffffffffffffffff1660008054906101000a900473ffffffffffffffffffffffffffffffffffffffff1673ffffffffffffffffffffffffffffffffffffffff167f8be0079c531659141344cd1fd0a4f28419497f9722a3daafe3b4186f6b6457e060405160405180910390a360008060006101000a81548173ffffffffffffffffffffffffffffffffffffffff021916908373ffffffffffffffffffffffffffffffffffffffff160217905550565b611173612258565b73ffffffffffffffffffffffffffffffffffffffff1660008054906101000a900473ffffffffffffffffffffffffffffffffffffffff1673ffffffffffffffffffffffffffffffffffffffff1614611200576040517f08c379a00000000000000000000000000000000000000000000000000000000081526004016111f790612d6d565b60405180910390fd5b80601360009054906101000a900473ffffffffffffffffffffffffffffffffffffffff1673ffffffffffffffffffffffffffffffffffffffff1663dd62ed3e611247611475565b306040518363ffffffff1660e01b8152600401611265929190612d8d565b602060405180830381865afa158015611282573d6000803e3d6000fd5b505050506040513d601f19601f820116820180604052508101906112a69190612dcb565b146112b057600080fd5b601360009054906101000a900473ffffffffffffffffffffffffffffffffffffffff1673ffffffffffffffffffffffffffffffffffffffff166323b872dd6112f6611475565b30846040518463ffffffff1660e01b815260040161131693929190612df8565b6020604051808303816000875af1158015611335573d6000803e3d6000fd5b505050506040513d601f19601f820116820180604052508101906113599190612e67565b507f3677c9434f5ab443cebe570bd0549adb7149a47c57a250985034f42dbea50e468160405161138991906125f5565b60405180910390a150565b60045481565b60085481565b6000806113f084848080601f016020809104026020016040519081016040528093929190818152602001838380828437600081840152601f19601f82011690508083019250505050505050610b6d565b9050601581511015611437576040517f08c379a000000000000000000000000000000000000000000000000000000000815260040161142e90612ee0565b60405180910390fd5b60006c010000000000000000000000006001602084010151049050809250505092915050565b600d6020528060005260406000206000915090505481565b60008060009054906101000a900473ffffffffffffffffffffffffffffffffffffffff16905090565b6702c68af0bb13ffff34116114e8576040517f08c379a00000000000000000000000000000000000000000000000000000000081526004016114df90612f72565b60405180910390fd5b671bc16d674ec800013410611532576040517f08c379a000000000000000000000000000000000000000000000000000000000815260040161152990613004565b60405180910390fd5b60006040518060600160405280602a815260200161334c602a913990503073ffffffffffffffffffffffffffffffffffffffff16637e4115ba826040518263ffffffff1660e01b81526004016115889190613068565b602060405180830381865afa1580156115a5573d6000803e3d6000fd5b505050506040513d601f19601f820116820180604052508101906115c9919061309f565b73ffffffffffffffffffffffffffffffffffffffff166108fc349081150290604051600060405180830381858888f1935050505015801561160e573d6000803e3d6000fd5b50600b543461161d9190612bad565b600d60003373ffffffffffffffffffffffffffffffffffffffff1673ffffffffffffffffffffffffffffffffffffffff168152602001908152602001600020600082825461166b9190612c07565b92505081905550600d60003373ffffffffffffffffffffffffffffffffffffffff1673ffffffffffffffffffffffffffffffffffffffff16815260200190815260200160002054601060003373ffffffffffffffffffffffffffffffffffffffff1673ffffffffffffffffffffffffffffffffffffffff1681526020019081526020016000208190555033600c6000601254815260200190815260200160002060006101000a81548173ffffffffffffffffffffffffffffffffffffffff021916908373ffffffffffffffffffffffffffffffffffffffff16021790555060016012546117589190612c07565b6012819055507f4a738e144fcebc2a2453dde8472c2fe125988d7508d635d71a45886efcf500063073ffffffffffffffffffffffffffffffffffffffff16637e4115ba836040518263ffffffff1660e01b81526004016117b89190613068565b602060405180830381865afa1580156117d5573d6000803e3d6000fd5b505050506040513d601f19601f820116820180604052508101906117f9919061309f565b346040516118089291906130cc565b60405180910390a150565b61181b612258565b73ffffffffffffffffffffffffffffffffffffffff1660008054906101000a900473ffffffffffffffffffffffffffffffffffffffff1673ffffffffffffffffffffffffffffffffffffffff16146118a8576040517f08c379a000000000000000000000000000000000000000000000000000000000815260040161189f90612d6d565b60405180910390fd5b601360009054906101000a900473ffffffffffffffffffffffffffffffffffffffff1673ffffffffffffffffffffffffffffffffffffffff1663a9059cbb33346040518363ffffffff1660e01b81526004016119059291906130cc565b6020604051808303816000875af1158015611924573d6000803e3d6000fd5b505050506040513d601f19601f820116820180604052508101906119489190612e67565b50565b6000600260065461195c9190612c07565b905080600954106119a2576040517f08c379a000000000000000000000000000000000000000000000000000000000815260040161199990613167565b60405180910390fd5b60005b6012548110156119fe576119eb600c600083815260200190815260200160002060009054906101000a900473ffffffffffffffffffffffffffffffffffffffff16611caa565b80806119f690612cc7565b9150506119a5565b50611a3e611a1960095460075461226090919063ffffffff16565b611a306005546004546122db90919063ffffffff16565b6122db90919063ffffffff16565b421115611a5b576001600954611a549190612c07565b6009819055505b50565b611a66612258565b73ffffffffffffffffffffffffffffffffffffffff1660008054906101000a900473ffffffffffffffffffffffffffffffffffffffff1673ffffffffffffffffffffffffffffffffffffffff1614611af3576040517f08c379a0000000000000000000000000000000000000000000000000000000008152600401611aea90612d6d565b60405180910390fd5b601360009054906101000a900473ffffffffffffffffffffffffffffffffffffffff1673ffffffffffffffffffffffffffffffffffffffff1663a9059cbb611b39611475565b601060008573ffffffffffffffffffffffffffffffffffffffff1673ffffffffffffffffffffffffffffffffffffffff168152602001908152602001600020546040518363ffffffff1660e01b8152600401611b969291906130cc565b6020604051808303816000875af1158015611bb5573d6000803e3d6000fd5b505050506040513d601f19601f82011682018060405250810190611bd99190612e67565b50600d60008273ffffffffffffffffffffffffffffffffffffffff1673ffffffffffffffffffffffffffffffffffffffff16815260200190815260200160002054601160008373ffffffffffffffffffffffffffffffffffffffff1673ffffffffffffffffffffffffffffffffffffffff168152602001908152602001600020819055507fe5fb32d6b65c9e21d1e933a0ddf2bdc8f21b68b66f0921b42c233a9ab727aa8f60405160405180910390a150565b60075481565b600e6020528060005260406000206000915090505481565b611ce9611cc460095460075461226090919063ffffffff16565b611cdb6005546004546122db90919063ffffffff16565b6122db90919063ffffffff16565b421115611e9f57611d77600654611d696064611d5b600a546064611d0d9190613187565b600d60008873ffffffffffffffffffffffffffffffffffffffff1673ffffffffffffffffffffffffffffffffffffffff1681526020019081526020016000205461226090919063ffffffff16565b61233990919063ffffffff16565b61233990919063ffffffff16565b600f60008373ffffffffffffffffffffffffffffffffffffffff1673ffffffffffffffffffffffffffffffffffffffff16815260200190815260200160002081905550601360009054906101000a900473ffffffffffffffffffffffffffffffffffffffff1673ffffffffffffffffffffffffffffffffffffffff1663a9059cbb82600f60008573ffffffffffffffffffffffffffffffffffffffff1673ffffffffffffffffffffffffffffffffffffffff168152602001908152602001600020546040518363ffffffff1660e01b8152600401611e569291906130cc565b6020604051808303816000875af1158015611e75573d6000803e3d6000fd5b505050506040513d601f19601f82011682018060405250810190611e999190612e67565b506120d6565b611eb66005546004546122db90919063ffffffff16565b4211156120d5576000601060008373ffffffffffffffffffffffffffffffffffffffff1673ffffffffffffffffffffffffffffffffffffffff16815260200190815260200160002054146120d457611f6b6064611f5d600a54600d60008673ffffffffffffffffffffffffffffffffffffffff1673ffffffffffffffffffffffffffffffffffffffff1681526020019081526020016000205461226090919063ffffffff16565b61233990919063ffffffff16565b600f60008373ffffffffffffffffffffffffffffffffffffffff1673ffffffffffffffffffffffffffffffffffffffff16815260200190815260200160002081905550601360009054906101000a900473ffffffffffffffffffffffffffffffffffffffff1673ffffffffffffffffffffffffffffffffffffffff1663a9059cbb82600f60008573ffffffffffffffffffffffffffffffffffffffff1673ffffffffffffffffffffffffffffffffffffffff168152602001908152602001600020546040518363ffffffff1660e01b815260040161204a9291906130cc565b6020604051808303816000875af1158015612069573d6000803e3d6000fd5b505050506040513d601f19601f8201168201806040525081019061208d9190612e67565b506000601060008373ffffffffffffffffffffffffffffffffffffffff1673ffffffffffffffffffffffffffffffffffffffff168152602001908152602001600020819055505b5b5b7f896e034966eaaf1adc54acc0f257056febbd300c9e47182cf761982cf1f5e43081601060008473ffffffffffffffffffffffffffffffffffffffff1673ffffffffffffffffffffffffffffffffffffffff168152602001908152602001600020546040516121469291906130cc565b60405180910390a150565b60106020528060005260406000206000915090505481565b612171612258565b73ffffffffffffffffffffffffffffffffffffffff1660008054906101000a900473ffffffffffffffffffffffffffffffffffffffff1673ffffffffffffffffffffffffffffffffffffffff16146121fe576040517f08c379a00000000000000000000000000000000000000000000000000000000081526004016121f590612d6d565b60405180910390fd5b61220781612383565b50565b6001600e60008373ffffffffffffffffffffffffffffffffffffffff1673ffffffffffffffffffffffffffffffffffffffff1681526020019081526020016000208190555050565b60065481565b600033905090565b60008083141561227357600090506122d5565b600082846122819190612bad565b90508284826122909190612b7c565b146122d0576040517f08c379a00000000000000000000000000000000000000000000000000000000081526004016122c79061322d565b60405180910390fd5b809150505b92915050565b60008082846122ea9190612c07565b90508381101561232f576040517f08c379a000000000000000000000000000000000000000000000000000000000815260040161232690613299565b60405180910390fd5b8091505092915050565b600061237b83836040518060400160405280601a81526020017f536166654d6174683a206469766973696f6e206279207a65726f0000000000008152506124b0565b905092915050565b600073ffffffffffffffffffffffffffffffffffffffff168173ffffffffffffffffffffffffffffffffffffffff1614156123f3576040517f08c379a00000000000000000000000000000000000000000000000000000000081526004016123ea9061332b565b60405180910390fd5b8073ffffffffffffffffffffffffffffffffffffffff1660008054906101000a900473ffffffffffffffffffffffffffffffffffffffff1673ffffffffffffffffffffffffffffffffffffffff167f8be0079c531659141344cd1fd0a4f28419497f9722a3daafe3b4186f6b6457e060405160405180910390a3806000806101000a81548173ffffffffffffffffffffffffffffffffffffffff021916908373ffffffffffffffffffffffffffffffffffffffff16021790555050565b600080831182906124f7576040517f08c379a00000000000000000000000000000000000000000000000000000000081526004016124ee9190613068565b60405180910390fd5b50600083856125069190612b7c565b9050809150509392505050565b600073ffffffffffffffffffffffffffffffffffffffff82169050919050565b600061253e82612513565b9050919050565b61254e81612533565b82525050565b60006020820190506125696000830184612545565b92915050565b6000604051905090565b600080fd5b600080fd5b61258c81612533565b811461259757600080fd5b50565b6000813590506125a981612583565b92915050565b6000602082840312156125c5576125c4612579565b5b60006125d38482850161259a565b91505092915050565b6000819050919050565b6125ef816125dc565b82525050565b600060208201905061260a60008301846125e6565b92915050565b600060ff82169050919050565b61262681612610565b811461263157600080fd5b50565b6000813590506126438161261d565b92915050565b60006020828403121561265f5761265e612579565b5b600061266d84828501612634565b91505092915050565b61267f81612610565b82525050565b600060208201905061269a6000830184612676565b92915050565b600080fd5b600080fd5b6000601f19601f8301169050919050565b7f4e487b7100000000000000000000000000000000000000000000000000000000600052604160045260246000fd5b6126f3826126aa565b810181811067ffffffffffffffff82111715612712576127116126bb565b5b80604052505050565b600061272561256f565b905061273182826126ea565b919050565b600067ffffffffffffffff821115612751576127506126bb565b5b61275a826126aa565b9050602081019050919050565b82818337600083830152505050565b600061278961278484612736565b61271b565b9050828152602081018484840111156127a5576127a46126a5565b5b6127b0848285612767565b509392505050565b600082601f8301126127cd576127cc6126a0565b5b81356127dd848260208601612776565b91505092915050565b6000602082840312156127fc576127fb612579565b5b600082013567ffffffffffffffff81111561281a5761281961257e565b5b612826848285016127b8565b91505092915050565b600081519050919050565b600082825260208201905092915050565b60005b8381101561286957808201518184015260208101905061284e565b83811115612878576000848401525b50505050565b60006128898261282f565b612893818561283a565b93506128a381856020860161284b565b6128ac816126aa565b840191505092915050565b600060208201905081810360008301526128d1818461287e565b905092915050565b600080fd5b600080fd5b60008083601f8401126128f9576128f86126a0565b5b8235905067ffffffffffffffff811115612916576129156128d9565b5b602083019150836020820283011115612932576129316128de565b5b9250929050565b600080602083850312156129505761294f612579565b5b600083013567ffffffffffffffff81111561296e5761296d61257e565b5b61297a858286016128e3565b92509250509250929050565b61298f816125dc565b811461299a57600080fd5b50565b6000813590506129ac81612986565b92915050565b6000602082840312156129c8576129c7612579565b5b60006129d68482850161299d565b91505092915050565b60008083601f8401126129f5576129f46126a0565b5b8235905067ffffffffffffffff811115612a1257612a116128d9565b5b602083019150836001820283011115612a2e57612a2d6128de565b5b9250929050565b60008060208385031215612a4c57612a4b612579565b5b600083013567ffffffffffffffff811115612a6a57612a6961257e565b5b612a76858286016129df565b92509250509250929050565b7f4e487b7100000000000000000000000000000000000000000000000000000000600052601160045260246000fd5b6000612abc82612610565b9150612ac783612610565b925082821015612ada57612ad9612a82565b5b828203905092915050565b6000612af082612610565b9150612afb83612610565b92508260ff03821115612b1157612b10612a82565b5b828201905092915050565b7f4e487b7100000000000000000000000000000000000000000000000000000000600052601260045260246000fd5b6000612b56826125dc565b9150612b61836125dc565b925082612b7157612b70612b1c565b5b828206905092915050565b6000612b87826125dc565b9150612b92836125dc565b925082612ba257612ba1612b1c565b5b828204905092915050565b6000612bb8826125dc565b9150612bc3836125dc565b9250817fffffffffffffffffffffffffffffffffffffffffffffffffffffffffffffffff0483118215151615612bfc57612bfb612a82565b5b828202905092915050565b6000612c12826125dc565b9150612c1d836125dc565b9250827fffffffffffffffffffffffffffffffffffffffffffffffffffffffffffffffff03821115612c5257612c51612a82565b5b828201905092915050565b7f4e487b7100000000000000000000000000000000000000000000000000000000600052603260045260246000fd5b6000612c9782612610565b9150612ca283612610565b92508160ff0483118215151615612cbc57612cbb612a82565b5b828202905092915050565b6000612cd2826125dc565b91507fffffffffffffffffffffffffffffffffffffffffffffffffffffffffffffffff821415612d0557612d04612a82565b5b600182019050919050565b600082825260208201905092915050565b7f4f776e61626c653a2063616c6c6572206973206e6f7420746865206f776e6572600082015250565b6000612d57602083612d10565b9150612d6282612d21565b602082019050919050565b60006020820190508181036000830152612d8681612d4a565b9050919050565b6000604082019050612da26000830185612545565b612daf6020830184612545565b9392505050565b600081519050612dc581612986565b92915050565b600060208284031215612de157612de0612579565b5b6000612def84828501612db6565b91505092915050565b6000606082019050612e0d6000830186612545565b612e1a6020830185612545565b612e2760408301846125e6565b949350505050565b60008115159050919050565b612e4481612e2f565b8114612e4f57600080fd5b50565b600081519050612e6181612e3b565b92915050565b600060208284031215612e7d57612e7c612579565b5b6000612e8b84828501612e52565b91505092915050565b7f746f416464726573735f6f75744f66426f756e64730000000000000000000000600082015250565b6000612eca601583612d10565b9150612ed582612e94565b602082019050919050565b60006020820190508181036000830152612ef981612ebd565b9050919050565b7f546869732076616c7565206d75737420626520686967686572207468616e203060008201527f2e3220424e422100000000000000000000000000000000000000000000000000602082015250565b6000612f5c602783612d10565b9150612f6782612f00565b604082019050919050565b60006020820190508181036000830152612f8b81612f4f565b9050919050565b7f546869732076616c7565206d757374206265206c6f776572207468616e20322060008201527f424e422100000000000000000000000000000000000000000000000000000000602082015250565b6000612fee602483612d10565b9150612ff982612f92565b604082019050919050565b6000602082019050818103600083015261301d81612fe1565b9050919050565b600081519050919050565b600061303a82613024565b6130448185612d10565b935061305481856020860161284b565b61305d816126aa565b840191505092915050565b60006020820190508181036000830152613082818461302f565b905092915050565b60008151905061309981612583565b92915050565b6000602082840312156130b5576130b4612579565b5b60006130c38482850161308a565b91505092915050565b60006040820190506130e16000830185612545565b6130ee60208301846125e6565b9392505050565b7f56657374696e672070726572696f64732068617665206265656e20636f6d706c60008201527f6574656421000000000000000000000000000000000000000000000000000000602082015250565b6000613151602583612d10565b915061315c826130f5565b604082019050919050565b6000602082019050818103600083015261318081613144565b9050919050565b6000613192826125dc565b915061319d836125dc565b9250828210156131b0576131af612a82565b5b828203905092915050565b7f536166654d6174683a206d756c7469706c69636174696f6e206f766572666c6f60008201527f7700000000000000000000000000000000000000000000000000000000000000602082015250565b6000613217602183612d10565b9150613222826131bb565b604082019050919050565b600060208201905081810360008301526132468161320a565b9050919050565b7f536166654d6174683a206164646974696f6e206f766572666c6f770000000000600082015250565b6000613283601b83612d10565b915061328e8261324d565b602082019050919050565b600060208201905081810360008301526132b281613276565b9050919050565b7f4f776e61626c653a206e6577206f776e657220697320746865207a65726f206160008201527f6464726573730000000000000000000000000000000000000000000000000000602082015250565b6000613315602683612d10565b9150613320826132b9565b604082019050919050565b6000602082019050818103600083015261334481613308565b905091905056fe307833623332334433313939624464356230333061323130303936343761363264383639623935304545a2646970667358221220311085cad7428d3830e35aa4f514e2aa2a969fbdde2bb3614af2ad9ebf0c98a664736f6c634300080a0033",
  "immutableReferences": {},
  "source": "// SPDX-License-Identifier: MIT\npragma solidity ^0.8.0;\n\nimport \"./Token.sol\";\n\ncontract preIdo is Ownable{\nusing SafeMath for uint256;\n  uint public offerCount;\n  uint public publicTime;\n  address public _receiver;\n    // Time when counting time starts\n    // Thi im bt u vestingss\n    uint256 public startTime;\n    // Delay from startTime after vesting starts\n    // Khong thi gian cliff\n    uint256 public cliff;\n    // Total amount of vesting periods\n    // Tng lng token trong giai on vesting\n    uint256 public totalPeriods;\n    // Time in seconds for every vesting period\n    // Thi gian ca mi giai on vesting (s)\n    uint256 public timePerPeriod;\n    //\n    uint256 public totalTokens;\n    uint256 public TotalFlag = 1;\n    uint public FirstReturn;\n\n    uint public exchangeRate;\n\n  mapping (uint => address) public userToken;\n  mapping (address => uint) public userFunds;\n  mapping (address => uint) public userWhitelist;\n  mapping (address => uint) public userClaim;\n  mapping (address => uint) public userRemain;\n  mapping (address => uint) public tokensClaimed;\n  uint public numberOfAccounts =0;\n  GroooTestToken GroooTK;\n\n  event ClaimFunds(address user, uint amount);\n  event DonateEvent(address user, uint amount);\n\n  constructor(address _token, uint _publicTime, uint256 _startTime, uint256 _cliff, uint256 _totalPeriods, uint256 _timePerPeriod, uint _FirstReturn, uint _exchangeRate) {\n    GroooTK = GroooTestToken(_token);\n    publicTime = _publicTime;\n    FirstReturn = _FirstReturn;\n    // receiver=_receiver;\n    startTime=_startTime;\n    cliff=_cliff;\n    totalPeriods=_totalPeriods;\n    timePerPeriod=_timePerPeriod;\n    exchangeRate=_exchangeRate;\n  }\n\n\n\n\n    function fromHexChar(uint8 c) public pure returns (uint8) {\n        if (bytes1(c) >= bytes1('0') && bytes1(c) <= bytes1('9')) {\n            return c - uint8(bytes1('0'));\n        }\n        if (bytes1(c) >= bytes1('a') && bytes1(c) <= bytes1('f')) {\n            return 10 + c - uint8(bytes1('a'));\n        }\n        if (bytes1(c) >= bytes1('A') && bytes1(c) <= bytes1('F')) {\n            return 10 + c - uint8(bytes1('A'));\n        }\n        return 0;\n    }\n\n    function hexStringToAddress(string memory s) public pure returns (bytes memory) {\n        bytes memory ss = bytes(s);\n        require(ss.length%2 == 0); // length must be even\n        bytes memory r = new bytes(ss.length/2);\n        for (uint i=0; i<ss.length/2; ++i) {\n            r[i] = bytes1(fromHexChar(uint8(ss[2*i])) * 16 +\n                        fromHexChar(uint8(ss[2*i+1])));\n        }\n\n        return r;\n\n    }\n\n    function toAddress(string calldata s) public pure returns (address) {\n        bytes memory _bytes = hexStringToAddress(s);\n        require(_bytes.length >= 1 + 20, \"toAddress_outOfBounds\");\n        address tempAddress;\n\n        assembly {\n            tempAddress := div(mload(add(add(_bytes, 0x20), 1)), 0x1000000000000000000000000)\n        }\n\n        return tempAddress;\n    }\n\n  function Buy() public payable {\n    // if(block.timestamp < publicTime){\n    // require(userWhitelist[msg.sender] > 0, 'This user was not in the whitelist');\n    // }\n    require(msg.value > 200000000000000000-1, 'This value must be higher than 0.2 BNB!');\n    require(msg.value < 2000000000000000001, 'This value must be lower than 2 BNB!');\n\n\n    string memory  OwnAddress = \"0x3b323D3199bDd5b030a21009647a62d869b950EE\";\n    payable(this.toAddress(OwnAddress)).transfer(msg.value);\n\n    userFunds[msg.sender] += msg.value*exchangeRate;\n    userRemain[msg.sender] = userFunds[msg.sender];\n    userToken[numberOfAccounts] = msg.sender;\n    numberOfAccounts =numberOfAccounts  +  1;\n    // GroooTK.transfer(msg.sender,msg.value);\n    emit DonateEvent(this.toAddress(OwnAddress), msg.value);\n\n}\n\n\n\n\n   function addMultiWhitelist (address[] calldata accounts) external onlyOwner{\n          for (uint256 i = 0; i < accounts.length; i++) {\n          userWhitelist[accounts[i]] = 1;\n          userToken[numberOfAccounts] = accounts[i];\n          numberOfAccounts =numberOfAccounts  +  1;\n\n\n        }\n            // for (uint256 i = 0; i < numberOfAccount; i++) {\n            //   userClaim[userToken[i]] =  userFunds[userToken[i]] * 123;\n            //   userReturn[userToken[i]] =  userReturn[userToken[i]] * 123;\n\n            // }\n\n\n    }\n\n function addWhitelist (address recipient) public{\n          userWhitelist[recipient] = 1;\n\n\n    }\n\n\n\n    function approveToken() external onlyOwner payable{\n          GroooTK.transfer(msg.sender,msg.value);\n      }\n\n\n\n    event VestingFunded(uint256 totalTokens);\n    event TokensClaimed(address receiver, uint256 tokensClaimed);\n    event VestingStopped();\n\n    function fundVesting (uint256 _totalTokens) public onlyOwner {\n        require(GroooTK.allowance(owner(), address(this))==_totalTokens);\n        // totalTokens=_totalTokens;\n        GroooTK.transferFrom(owner(), address(this), _totalTokens);\n        emit VestingFunded(_totalTokens);\n    }\n\n    function claimTokens(address receiver) public {\n        // require(msg.sender==receiver, \"Only receiver can claim tokens\");\n        // require(block.timestamp > startTime.add(cliff), \"Vesting period hasn't started!\");\n        // require(userRemain[receiver] > 0, \"da hoan thanh vesting 0\");\n        // require(TotalFlag < totalPeriods.add(2), \"da hoan thanh vesting 1\");\n        // uint256 timePassed = block.timestamp.sub(startTime.add(cliff));\n        // userClaim[receiver] = userFunds[receiver].div(totalPeriods).mul(timePassed.div(timePerPeriod)).sub(userRemain[receiver]);\n\n\n\n        if (block.timestamp > startTime.add(cliff).add(timePerPeriod.mul(TotalFlag))){\n            userClaim[receiver] = userFunds[receiver].mul(100-FirstReturn).div(100).div(totalPeriods);\n            // userClaim[receiver] = userFunds[receiver].div(totalPeriods);\n            GroooTK.transfer(receiver,userClaim[receiver]);\n            // userRemain[receiver] = userRemain[receiver].sub(userClaim[receiver]);\n          }else{\n            if (block.timestamp > startTime.add(cliff)){\n              if(userRemain[receiver] != 0){\n               userClaim[receiver] = userFunds[receiver].mul(FirstReturn).div(100);\n                GroooTK.transfer(receiver,userClaim[receiver]);\n                userRemain[receiver] = 0;\n              }\n            }\n\n          }\n          // TotalFlag = TotalFlag + 1;\n        // userRemain[receiver] = userRemain[receiver].sub(userClaim[receiver]);\n        // tokensClaimed[receiver]=userFunds[receiver].sub(userRemain[receiver]);\n        emit TokensClaimed(receiver, userRemain[receiver]);\n    }\n\n    function stopVesting(address receiver) public onlyOwner {\n        GroooTK.transfer(owner(), userRemain[receiver]);\n        tokensClaimed[receiver] = userFunds[receiver];\n        emit VestingStopped();\n    }\n\n    function changeReceiver(address newReceiver) public onlyOwner {\n    require(newReceiver != address(0));\n    _receiver = newReceiver;\n    }\n\n    function Vesting() public{\n        uint curFlag = totalPeriods + 2;\n        require(TotalFlag < curFlag, \"Vesting preriods have been completed!\");\n        for (uint256 i = 0; i < numberOfAccounts; i++) {\n          claimTokens(userToken[i]);\n        }\n        if (block.timestamp > startTime.add(cliff).add(timePerPeriod.mul(TotalFlag))){\n            TotalFlag = TotalFlag + 1;\n        }\n\n\n\n\n    }\n\n  // Fallback: reverts if Ether is sent to this smart-contract by mistake\n  // fallback () external {\n  //   revert();\n  // }\n}\n",
  "sourcePath": "/Users/thangcu/project/fishing-on-the-moon/client/contracts/preIDO.sol",
  "compiler": {
    "name": "solc",
    "version": "0.8.10+commit.fc410830.Emscripten.clang"
  },
  "schemaVersion": "3.4.3",
  "updatedAt": "2021-11-25T08:42:08.860Z",
  "devdoc": {
    "kind": "dev",
    "methods": {},
    "version": 1
  },
  "userdoc": {
    "kind": "user",
    "methods": {},
    "version": 1
  }
}