{
  "contractName": "preIdo",
  "abi": [
    {
      "inputs": [
        {
          "internalType": "address",
          "name": "_token",
          "type": "address"
        },
        {
          "internalType": "uint256",
          "name": "_publicTime",
          "type": "uint256"
        },
        {
          "internalType": "uint256",
          "name": "_startTime",
          "type": "uint256"
        },
        {
          "internalType": "uint256",
          "name": "_cliff",
          "type": "uint256"
        },
        {
          "internalType": "uint256",
          "name": "_totalPeriods",
          "type": "uint256"
        },
        {
          "internalType": "uint256",
          "name": "_timePerPeriod",
          "type": "uint256"
        },
        {
          "internalType": "uint256",
          "name": "_FirstReturn",
          "type": "uint256"
        },
        {
          "internalType": "uint256",
          "name": "_exchangeRate",
          "type": "uint256"
        }
      ],
      "stateMutability": "nonpayable",
      "type": "constructor"
    },
    {
      "anonymous": false,
      "inputs": [
        {
          "indexed": false,
          "internalType": "address",
          "name": "user",
          "type": "address"
        },
        {
          "indexed": false,
          "internalType": "uint256",
          "name": "amount",
          "type": "uint256"
        }
      ],
      "name": "ClaimFunds",
      "type": "event"
    },
    {
      "anonymous": false,
      "inputs": [
        {
          "indexed": false,
          "internalType": "address",
          "name": "user",
          "type": "address"
        },
        {
          "indexed": false,
          "internalType": "uint256",
          "name": "amount",
          "type": "uint256"
        }
      ],
      "name": "DonateEvent",
      "type": "event"
    },
    {
      "anonymous": false,
      "inputs": [
        {
          "indexed": true,
          "internalType": "address",
          "name": "previousOwner",
          "type": "address"
        },
        {
          "indexed": true,
          "internalType": "address",
          "name": "newOwner",
          "type": "address"
        }
      ],
      "name": "OwnershipTransferred",
      "type": "event"
    },
    {
      "anonymous": false,
      "inputs": [
        {
          "indexed": false,
          "internalType": "address",
          "name": "receiver",
          "type": "address"
        },
        {
          "indexed": false,
          "internalType": "uint256",
          "name": "tokensClaimed",
          "type": "uint256"
        }
      ],
      "name": "TokensClaimed",
      "type": "event"
    },
    {
      "anonymous": false,
      "inputs": [],
      "name": "VestingStopped",
      "type": "event"
    },
    {
      "anonymous": false,
      "inputs": [
        {
          "indexed": false,
          "internalType": "uint256",
          "name": "amount",
          "type": "uint256"
        }
      ],
      "name": "WithDraw",
      "type": "event"
    },
    {
      "inputs": [],
      "name": "FirstReturn",
      "outputs": [
        {
          "internalType": "uint256",
          "name": "",
          "type": "uint256"
        }
      ],
      "stateMutability": "view",
      "type": "function",
      "constant": true
    },
    {
      "inputs": [],
      "name": "TotalFlag",
      "outputs": [
        {
          "internalType": "uint256",
          "name": "",
          "type": "uint256"
        }
      ],
      "stateMutability": "view",
      "type": "function",
      "constant": true
    },
    {
      "inputs": [],
      "name": "allow_flag",
      "outputs": [
        {
          "internalType": "uint256",
          "name": "",
          "type": "uint256"
        }
      ],
      "stateMutability": "view",
      "type": "function",
      "constant": true
    },
    {
      "inputs": [
        {
          "internalType": "address",
          "name": "",
          "type": "address"
        }
      ],
      "name": "award",
      "outputs": [
        {
          "internalType": "uint256",
          "name": "",
          "type": "uint256"
        }
      ],
      "stateMutability": "view",
      "type": "function",
      "constant": true
    },
    {
      "inputs": [
        {
          "internalType": "address",
          "name": "",
          "type": "address"
        }
      ],
      "name": "buyState",
      "outputs": [
        {
          "internalType": "uint256",
          "name": "",
          "type": "uint256"
        }
      ],
      "stateMutability": "view",
      "type": "function",
      "constant": true
    },
    {
      "inputs": [],
      "name": "cliff",
      "outputs": [
        {
          "internalType": "uint256",
          "name": "",
          "type": "uint256"
        }
      ],
      "stateMutability": "view",
      "type": "function",
      "constant": true
    },
    {
      "inputs": [],
      "name": "exchangeRate",
      "outputs": [
        {
          "internalType": "uint256",
          "name": "",
          "type": "uint256"
        }
      ],
      "stateMutability": "view",
      "type": "function",
      "constant": true
    },
    {
      "inputs": [],
      "name": "numberOfAccounts",
      "outputs": [
        {
          "internalType": "uint256",
          "name": "",
          "type": "uint256"
        }
      ],
      "stateMutability": "view",
      "type": "function",
      "constant": true
    },
    {
      "inputs": [],
      "name": "offerCount",
      "outputs": [
        {
          "internalType": "uint256",
          "name": "",
          "type": "uint256"
        }
      ],
      "stateMutability": "view",
      "type": "function",
      "constant": true
    },
    {
      "inputs": [],
      "name": "owner",
      "outputs": [
        {
          "internalType": "address",
          "name": "",
          "type": "address"
        }
      ],
      "stateMutability": "view",
      "type": "function",
      "constant": true
    },
    {
      "inputs": [],
      "name": "publicTime",
      "outputs": [
        {
          "internalType": "uint256",
          "name": "",
          "type": "uint256"
        }
      ],
      "stateMutability": "view",
      "type": "function",
      "constant": true
    },
    {
      "inputs": [],
      "name": "renounceOwnership",
      "outputs": [],
      "stateMutability": "nonpayable",
      "type": "function"
    },
    {
      "inputs": [],
      "name": "stakingRate",
      "outputs": [
        {
          "internalType": "uint256",
          "name": "",
          "type": "uint256"
        }
      ],
      "stateMutability": "view",
      "type": "function",
      "constant": true
    },
    {
      "inputs": [],
      "name": "startTime",
      "outputs": [
        {
          "internalType": "uint256",
          "name": "",
          "type": "uint256"
        }
      ],
      "stateMutability": "view",
      "type": "function",
      "constant": true
    },
    {
      "inputs": [],
      "name": "timePerPeriod",
      "outputs": [
        {
          "internalType": "uint256",
          "name": "",
          "type": "uint256"
        }
      ],
      "stateMutability": "view",
      "type": "function",
      "constant": true
    },
    {
      "inputs": [],
      "name": "totalPeriods",
      "outputs": [
        {
          "internalType": "uint256",
          "name": "",
          "type": "uint256"
        }
      ],
      "stateMutability": "view",
      "type": "function",
      "constant": true
    },
    {
      "inputs": [],
      "name": "totalTokens",
      "outputs": [
        {
          "internalType": "uint256",
          "name": "",
          "type": "uint256"
        }
      ],
      "stateMutability": "view",
      "type": "function",
      "constant": true
    },
    {
      "inputs": [
        {
          "internalType": "address",
          "name": "newOwner",
          "type": "address"
        }
      ],
      "name": "transferOwnership",
      "outputs": [],
      "stateMutability": "nonpayable",
      "type": "function"
    },
    {
      "inputs": [
        {
          "internalType": "address",
          "name": "",
          "type": "address"
        }
      ],
      "name": "userAmount",
      "outputs": [
        {
          "internalType": "uint256",
          "name": "",
          "type": "uint256"
        }
      ],
      "stateMutability": "view",
      "type": "function",
      "constant": true
    },
    {
      "inputs": [
        {
          "internalType": "address",
          "name": "",
          "type": "address"
        }
      ],
      "name": "userClaim",
      "outputs": [
        {
          "internalType": "uint256",
          "name": "",
          "type": "uint256"
        }
      ],
      "stateMutability": "view",
      "type": "function",
      "constant": true
    },
    {
      "inputs": [
        {
          "internalType": "address",
          "name": "",
          "type": "address"
        }
      ],
      "name": "userClaimed",
      "outputs": [
        {
          "internalType": "uint256",
          "name": "",
          "type": "uint256"
        }
      ],
      "stateMutability": "view",
      "type": "function",
      "constant": true
    },
    {
      "inputs": [
        {
          "internalType": "address",
          "name": "",
          "type": "address"
        }
      ],
      "name": "userFunds",
      "outputs": [
        {
          "internalType": "uint256",
          "name": "",
          "type": "uint256"
        }
      ],
      "stateMutability": "view",
      "type": "function",
      "constant": true
    },
    {
      "inputs": [
        {
          "internalType": "address",
          "name": "",
          "type": "address"
        }
      ],
      "name": "userFundsInUSDT",
      "outputs": [
        {
          "internalType": "uint256",
          "name": "",
          "type": "uint256"
        }
      ],
      "stateMutability": "view",
      "type": "function",
      "constant": true
    },
    {
      "inputs": [
        {
          "internalType": "address",
          "name": "",
          "type": "address"
        }
      ],
      "name": "userRemain",
      "outputs": [
        {
          "internalType": "uint256",
          "name": "",
          "type": "uint256"
        }
      ],
      "stateMutability": "view",
      "type": "function",
      "constant": true
    },
    {
      "inputs": [
        {
          "internalType": "uint256",
          "name": "",
          "type": "uint256"
        }
      ],
      "name": "userToken",
      "outputs": [
        {
          "internalType": "address",
          "name": "",
          "type": "address"
        }
      ],
      "stateMutability": "view",
      "type": "function",
      "constant": true
    },
    {
      "inputs": [
        {
          "internalType": "address",
          "name": "",
          "type": "address"
        }
      ],
      "name": "userTransfer",
      "outputs": [
        {
          "internalType": "uint256",
          "name": "",
          "type": "uint256"
        }
      ],
      "stateMutability": "view",
      "type": "function",
      "constant": true
    },
    {
      "inputs": [
        {
          "internalType": "uint8",
          "name": "c",
          "type": "uint8"
        }
      ],
      "name": "fromHexChar",
      "outputs": [
        {
          "internalType": "uint8",
          "name": "",
          "type": "uint8"
        }
      ],
      "stateMutability": "pure",
      "type": "function",
      "constant": true
    },
    {
      "inputs": [
        {
          "internalType": "string",
          "name": "s",
          "type": "string"
        }
      ],
      "name": "hexStringToAddress",
      "outputs": [
        {
          "internalType": "bytes",
          "name": "",
          "type": "bytes"
        }
      ],
      "stateMutability": "pure",
      "type": "function",
      "constant": true
    },
    {
      "inputs": [
        {
          "internalType": "string",
          "name": "s",
          "type": "string"
        }
      ],
      "name": "toAddress",
      "outputs": [
        {
          "internalType": "address",
          "name": "",
          "type": "address"
        }
      ],
      "stateMutability": "pure",
      "type": "function",
      "constant": true
    },
    {
      "inputs": [
        {
          "internalType": "uint256",
          "name": "flag",
          "type": "uint256"
        }
      ],
      "name": "changeAllowFlag",
      "outputs": [
        {
          "internalType": "uint256",
          "name": "",
          "type": "uint256"
        }
      ],
      "stateMutability": "nonpayable",
      "type": "function"
    },
    {
      "inputs": [
        {
          "internalType": "address",
          "name": "token_address",
          "type": "address"
        },
        {
          "internalType": "uint256",
          "name": "amount",
          "type": "uint256"
        }
      ],
      "name": "Buy",
      "outputs": [
        {
          "internalType": "bool",
          "name": "",
          "type": "bool"
        }
      ],
      "stateMutability": "nonpayable",
      "type": "function"
    },
    {
      "inputs": [],
      "name": "approveToken",
      "outputs": [],
      "stateMutability": "payable",
      "type": "function",
      "payable": true
    },
    {
      "inputs": [
        {
          "internalType": "uint256",
          "name": "amount",
          "type": "uint256"
        }
      ],
      "name": "fundVesting",
      "outputs": [],
      "stateMutability": "nonpayable",
      "type": "function"
    },
    {
      "inputs": [
        {
          "internalType": "address",
          "name": "receiver",
          "type": "address"
        }
      ],
      "name": "claimTokens",
      "outputs": [],
      "stateMutability": "nonpayable",
      "type": "function"
    },
    {
      "inputs": [],
      "name": "Vesting",
      "outputs": [],
      "stateMutability": "nonpayable",
      "type": "function"
    },
    {
      "inputs": [
        {
          "internalType": "uint256",
          "name": "amount",
          "type": "uint256"
        }
      ],
      "name": "withdrawTokenForOwner",
      "outputs": [],
      "stateMutability": "nonpayable",
      "type": "function"
    },
    {
      "inputs": [
        {
          "internalType": "address",
          "name": "token_address",
          "type": "address"
        },
        {
          "internalType": "uint256",
          "name": "amount",
          "type": "uint256"
        }
      ],
      "name": "withdrawBUSDForOwner",
      "outputs": [],
      "stateMutability": "nonpayable",
      "type": "function"
    },
    {
      "inputs": [],
      "name": "checkBalanceTokenContract",
      "outputs": [
        {
          "internalType": "uint256",
          "name": "",
          "type": "uint256"
        }
      ],
      "stateMutability": "view",
      "type": "function",
      "constant": true
    },
    {
      "inputs": [
        {
          "internalType": "address",
          "name": "token_address",
          "type": "address"
        }
      ],
      "name": "checkBalanceBUSDContract",
      "outputs": [
        {
          "internalType": "uint256",
          "name": "",
          "type": "uint256"
        }
      ],
      "stateMutability": "view",
      "type": "function",
      "constant": true
    }
  ],
  "bytecode": "0x6080604052690a968163f0a57b4000006007556001600c5560006017553480156200002957600080fd5b5060405162003ed938038062003ed983398181016040528101906200004f91906200022c565b6000620000616200017f60201b60201c565b9050806000806101000a81548173ffffffffffffffffffffffffffffffffffffffff021916908373ffffffffffffffffffffffffffffffffffffffff1602179055508073ffffffffffffffffffffffffffffffffffffffff16600073ffffffffffffffffffffffffffffffffffffffff167f8be0079c531659141344cd1fd0a4f28419497f9722a3daafe3b4186f6b6457e060405160405180910390a35087601860006101000a81548173ffffffffffffffffffffffffffffffffffffffff021916908373ffffffffffffffffffffffffffffffffffffffff16021790555086600281905550816009819055508560038190555084600481905550836005819055508260068190555080600a819055505050505050505050620002f5565b600033905090565b600080fd5b600073ffffffffffffffffffffffffffffffffffffffff82169050919050565b6000620001b9826200018c565b9050919050565b620001cb81620001ac565b8114620001d757600080fd5b50565b600081519050620001eb81620001c0565b92915050565b6000819050919050565b6200020681620001f1565b81146200021257600080fd5b50565b6000815190506200022681620001fb565b92915050565b600080600080600080600080610100898b03121562000250576200024f62000187565b5b6000620002608b828c01620001da565b9850506020620002738b828c0162000215565b9750506040620002868b828c0162000215565b9650506060620002998b828c0162000215565b9550506080620002ac8b828c0162000215565b94505060a0620002bf8b828c0162000215565b93505060c0620002d28b828c0162000215565b92505060e0620002e58b828c0162000215565b9150509295985092959890939650565b613bd480620003056000396000f3fe6080604052600436106102305760003560e01c80637e1c0c091161012e578063cf0f0e9c116100ab578063f12eceae1161006f578063f12eceae14610884578063f2fde38b146108c1578063f3b92b85146108ea578063fbdd25e414610927578063fea708f61461096457610230565b8063cf0f0e9c1461078d578063df8de3e7146107b8578063e1ad418e146107e1578063e3d4187f1461081e578063f0b2a9b51461085b57610230565b806398a950cd116100f257806398a950cd146106d957806399b71d5c1461071657806399c0823814610720578063b13ef3431461074b578063c63a6ad21461076257610230565b80637e1c0c09146105de5780637e4115ba146106095780637e8e4019146106465780638387c6e1146106715780638da5cb5b146106ae57610230565b8063474b2d52116101bc5780635e41ab88116101805780635e41ab881461050d578063715018a61461054a578063736ddf9014610561578063739135451461058a57806378e97925146105b357610230565b8063474b2d5214610400578063498440611461043d57806349e7f7f1146104685780634fb172e614610493578063565eef70146104d057610230565b80631bdc608e116102035780631bdc608e146102f35780632ecb20d31461031e5780632f3875141461035b5780633b7fcdca146103985780633ba0b9a9146103d557610230565b80630a6b433f146102355780630f03e4c3146102725780631115c24d1461029d57806313d033c0146102c8575b600080fd5b34801561024157600080fd5b5061025c60048036038101906102579190612d18565b61098f565b6040516102699190612d5e565b60405180910390f35b34801561027e57600080fd5b506102876109a7565b6040516102949190612d5e565b60405180910390f35b3480156102a957600080fd5b506102b26109ad565b6040516102bf9190612d5e565b60405180910390f35b3480156102d457600080fd5b506102dd6109b3565b6040516102ea9190612d5e565b60405180910390f35b3480156102ff57600080fd5b506103086109b9565b6040516103159190612d5e565b60405180910390f35b34801561032a57600080fd5b5061034560048036038101906103409190612db2565b6109bf565b6040516103529190612dee565b60405180910390f35b34801561036757600080fd5b50610382600480360381019061037d9190612f4f565b610d2e565b60405161038f9190613020565b60405180910390f35b3480156103a457600080fd5b506103bf60048036038101906103ba9190612d18565b610eb2565b6040516103cc9190612d5e565b60405180910390f35b3480156103e157600080fd5b506103ea610eca565b6040516103f79190612d5e565b60405180910390f35b34801561040c57600080fd5b5061042760048036038101906104229190612d18565b610ed0565b6040516104349190612d5e565b60405180910390f35b34801561044957600080fd5b50610452610ee8565b60405161045f9190612d5e565b60405180910390f35b34801561047457600080fd5b5061047d610eee565b60405161048a9190612d5e565b60405180910390f35b34801561049f57600080fd5b506104ba60048036038101906104b59190612d18565b610ef4565b6040516104c79190612d5e565b60405180910390f35b3480156104dc57600080fd5b506104f760048036038101906104f29190612d18565b610f0c565b6040516105049190612d5e565b60405180910390f35b34801561051957600080fd5b50610534600480360381019061052f919061306e565b610f9a565b60405161054191906130aa565b60405180910390f35b34801561055657600080fd5b5061055f610fcd565b005b34801561056d57600080fd5b50610588600480360381019061058391906130c5565b611120565b005b34801561059657600080fd5b506105b160048036038101906105ac919061306e565b61127c565b005b3480156105bf57600080fd5b506105c86113be565b6040516105d59190612d5e565b60405180910390f35b3480156105ea57600080fd5b506105f36113c4565b6040516106009190612d5e565b60405180910390f35b34801561061557600080fd5b50610630600480360381019061062b9190613165565b6113ca565b60405161063d91906130aa565b60405180910390f35b34801561065257600080fd5b5061065b611487565b6040516106689190612d5e565b60405180910390f35b34801561067d57600080fd5b5061069860048036038101906106939190612d18565b61152f565b6040516106a59190612d5e565b60405180910390f35b3480156106ba57600080fd5b506106c3611547565b6040516106d091906130aa565b60405180910390f35b3480156106e557600080fd5b5061070060048036038101906106fb919061306e565b611570565b60405161070d9190612d5e565b60405180910390f35b61071e611616565b005b34801561072c57600080fd5b5061073561174e565b6040516107429190612d5e565b60405180910390f35b34801561075757600080fd5b50610760611754565b005b34801561076e57600080fd5b50610777611853565b6040516107849190612d5e565b60405180910390f35b34801561079957600080fd5b506107a2611859565b6040516107af9190612d5e565b60405180910390f35b3480156107c457600080fd5b506107df60048036038101906107da9190612d18565b61185f565b005b3480156107ed57600080fd5b5061080860048036038101906108039190612d18565b61225d565b6040516108159190612d5e565b60405180910390f35b34801561082a57600080fd5b50610845600480360381019061084091906130c5565b612275565b60405161085291906131cd565b60405180910390f35b34801561086757600080fd5b50610882600480360381019061087d919061306e565b612785565b005b34801561089057600080fd5b506108ab60048036038101906108a69190612d18565b6128fc565b6040516108b89190612d5e565b60405180910390f35b3480156108cd57600080fd5b506108e860048036038101906108e39190612d18565b612914565b005b3480156108f657600080fd5b50610911600480360381019061090c9190612d18565b6129b5565b60405161091e9190612d5e565b60405180910390f35b34801561093357600080fd5b5061094e60048036038101906109499190612d18565b6129cd565b60405161095b9190612d5e565b60405180910390f35b34801561097057600080fd5b506109796129e5565b6040516109869190612d5e565b60405180910390f35b60126020528060005260406000206000915090505481565b60175481565b60015481565b60045481565b60025481565b60007f30000000000000000000000000000000000000000000000000000000000000007effffffffffffffffffffffffffffffffffffffffffffffffffffffffffffff19168260f81b7effffffffffffffffffffffffffffffffffffffffffffffffffffffffffffff191610158015610a9f57507f39000000000000000000000000000000000000000000000000000000000000007effffffffffffffffffffffffffffffffffffffffffffffffffffffffffffff19168260f81b7effffffffffffffffffffffffffffffffffffffffffffffffffffffffffffff191611155b15610ada577f300000000000000000000000000000000000000000000000000000000000000060f81c82610ad39190613217565b9050610d29565b7f61000000000000000000000000000000000000000000000000000000000000007effffffffffffffffffffffffffffffffffffffffffffffffffffffffffffff19168260f81b7effffffffffffffffffffffffffffffffffffffffffffffffffffffffffffff191610158015610bb857507f66000000000000000000000000000000000000000000000000000000000000007effffffffffffffffffffffffffffffffffffffffffffffffffffffffffffff19168260f81b7effffffffffffffffffffffffffffffffffffffffffffffffffffffffffffff191611155b15610bff577f610000000000000000000000000000000000000000000000000000000000000060f81c82600a610bee919061324b565b610bf89190613217565b9050610d29565b7f41000000000000000000000000000000000000000000000000000000000000007effffffffffffffffffffffffffffffffffffffffffffffffffffffffffffff19168260f81b7effffffffffffffffffffffffffffffffffffffffffffffffffffffffffffff191610158015610cdd57507f46000000000000000000000000000000000000000000000000000000000000007effffffffffffffffffffffffffffffffffffffffffffffffffffffffffffff19168260f81b7effffffffffffffffffffffffffffffffffffffffffffffffffffffffffffff191611155b15610d24577f410000000000000000000000000000000000000000000000000000000000000060f81c82600a610d13919061324b565b610d1d9190613217565b9050610d29565b600090505b919050565b60606000829050600060028251610d4591906132b1565b14610d4f57600080fd5b600060028251610d5f91906132e2565b67ffffffffffffffff811115610d7857610d77612e24565b5b6040519080825280601f01601f191660200182016040528015610daa5781602001600182028036833780820191505090505b50905060005b60028351610dbe91906132e2565b811015610ea757610e06836001836002610dd89190613313565b610de2919061336d565b81518110610df357610df26133c3565b5b602001015160f81c60f81b60f81c6109bf565b6010610e3d85846002610e199190613313565b81518110610e2a57610e296133c3565b5b602001015160f81c60f81b60f81c6109bf565b610e4791906133f2565b610e51919061324b565b60f81b828281518110610e6757610e666133c3565b5b60200101907effffffffffffffffffffffffffffffffffffffffffffffffffffffffffffff1916908160001a90535080610ea09061342d565b9050610db0565b508092505050919050565b60146020528060005260406000206000915090505481565b600a5481565b60156020528060005260406000206000915090505481565b60085481565b60095481565b60116020528060005260406000206000915090505481565b60008082905060008173ffffffffffffffffffffffffffffffffffffffff166370a08231306040518263ffffffff1660e01b8152600401610f4d91906130aa565b602060405180830381865afa158015610f6a573d6000803e3d6000fd5b505050506040513d601f19601f82011682018060405250810190610f8e919061348b565b90508092505050919050565b600d6020528060005260406000206000915054906101000a900473ffffffffffffffffffffffffffffffffffffffff1681565b610fd56129eb565b73ffffffffffffffffffffffffffffffffffffffff1660008054906101000a900473ffffffffffffffffffffffffffffffffffffffff1673ffffffffffffffffffffffffffffffffffffffff1614611062576040517f08c379a000000000000000000000000000000000000000000000000000000000815260040161105990613515565b60405180910390fd5b600073ffffffffffffffffffffffffffffffffffffffff1660008054906101000a900473ffffffffffffffffffffffffffffffffffffffff1673ffffffffffffffffffffffffffffffffffffffff167f8be0079c531659141344cd1fd0a4f28419497f9722a3daafe3b4186f6b6457e060405160405180910390a360008060006101000a81548173ffffffffffffffffffffffffffffffffffffffff021916908373ffffffffffffffffffffffffffffffffffffffff160217905550565b6111286129eb565b73ffffffffffffffffffffffffffffffffffffffff1660008054906101000a900473ffffffffffffffffffffffffffffffffffffffff1673ffffffffffffffffffffffffffffffffffffffff16146111b5576040517f08c379a00000000000000000000000000000000000000000000000000000000081526004016111ac90613515565b60405180910390fd5b60008290508073ffffffffffffffffffffffffffffffffffffffff1663a9059cbb6111de611547565b846040518363ffffffff1660e01b81526004016111fc929190613535565b6020604051808303816000875af115801561121b573d6000803e3d6000fd5b505050506040513d601f19601f8201168201806040525081019061123f919061358a565b507fcbe159bbfa02836af5ba6d951958879a5d0b207331524c51ef4a58c95421e3128260405161126f9190612d5e565b60405180910390a1505050565b6112846129eb565b73ffffffffffffffffffffffffffffffffffffffff1660008054906101000a900473ffffffffffffffffffffffffffffffffffffffff1673ffffffffffffffffffffffffffffffffffffffff1614611311576040517f08c379a000000000000000000000000000000000000000000000000000000000815260040161130890613515565b60405180910390fd5b601860009054906101000a900473ffffffffffffffffffffffffffffffffffffffff1673ffffffffffffffffffffffffffffffffffffffff1663d1660f99611357611547565b30846040518463ffffffff1660e01b8152600401611377939291906135b7565b6020604051808303816000875af1158015611396573d6000803e3d6000fd5b505050506040513d601f19601f820116820180604052508101906113ba919061358a565b5050565b60035481565b60075481565b60008061141a84848080601f016020809104026020016040519081016040528093929190818152602001838380828437600081840152601f19601f82011690508083019250505050505050610d2e565b9050601581511015611461576040517f08c379a00000000000000000000000000000000000000000000000000000000081526004016114589061363a565b60405180910390fd5b60006c010000000000000000000000006001602084010151049050809250505092915050565b600080601860009054906101000a900473ffffffffffffffffffffffffffffffffffffffff1673ffffffffffffffffffffffffffffffffffffffff166370a08231306040518263ffffffff1660e01b81526004016114e591906130aa565b602060405180830381865afa158015611502573d6000803e3d6000fd5b505050506040513d601f19601f82011682018060405250810190611526919061348b565b90508091505090565b600f6020528060005260406000206000915090505481565b60008060009054906101000a900473ffffffffffffffffffffffffffffffffffffffff16905090565b600061157a6129eb565b73ffffffffffffffffffffffffffffffffffffffff1660008054906101000a900473ffffffffffffffffffffffffffffffffffffffff1673ffffffffffffffffffffffffffffffffffffffff1614611607576040517f08c379a00000000000000000000000000000000000000000000000000000000081526004016115fe90613515565b60405180910390fd5b81600c81905550819050919050565b61161e6129eb565b73ffffffffffffffffffffffffffffffffffffffff1660008054906101000a900473ffffffffffffffffffffffffffffffffffffffff1673ffffffffffffffffffffffffffffffffffffffff16146116ab576040517f08c379a00000000000000000000000000000000000000000000000000000000081526004016116a290613515565b60405180910390fd5b601860009054906101000a900473ffffffffffffffffffffffffffffffffffffffff1673ffffffffffffffffffffffffffffffffffffffff1663a9059cbb33346040518363ffffffff1660e01b8152600401611708929190613535565b6020604051808303816000875af1158015611727573d6000803e3d6000fd5b505050506040513d601f19601f8201168201806040525081019061174b919061358a565b50565b600c5481565b61175c6129eb565b73ffffffffffffffffffffffffffffffffffffffff1660008054906101000a900473ffffffffffffffffffffffffffffffffffffffff1673ffffffffffffffffffffffffffffffffffffffff16146117e9576040517f08c379a00000000000000000000000000000000000000000000000000000000081526004016117e090613515565b60405180910390fd5b6117f36000611570565b5060005b6017548110156118505761183d600d600083815260200190815260200160002060009054906101000a900473ffffffffffffffffffffffffffffffffffffffff1661185f565b80806118489061342d565b9150506117f7565b50565b600b5481565b60065481565b6000601360008373ffffffffffffffffffffffffffffffffffffffff1673ffffffffffffffffffffffffffffffffffffffff16815260200190815260200160002054116118e1576040517f08c379a00000000000000000000000000000000000000000000000000000000081526004016118d8906136a6565b60405180910390fd5b6118f86004546003546129f390919063ffffffff16565b4211156121e25761193560065461191c6004546003546129f390919063ffffffff16565b4261192791906136c6565b612a5190919063ffffffff16565b60088190555060006008541415611d04576119ad606461199f600954600f60008673ffffffffffffffffffffffffffffffffffffffff1673ffffffffffffffffffffffffffffffffffffffff16815260200190815260200160002054612a9b90919063ffffffff16565b612a5190919063ffffffff16565b601260008373ffffffffffffffffffffffffffffffffffffffff1673ffffffffffffffffffffffffffffffffffffffff16815260200190815260200160002081905550601460008273ffffffffffffffffffffffffffffffffffffffff1673ffffffffffffffffffffffffffffffffffffffff16815260200190815260200160002054601260008373ffffffffffffffffffffffffffffffffffffffff1673ffffffffffffffffffffffffffffffffffffffff16815260200190815260200160002054611a7a91906136c6565b601560008373ffffffffffffffffffffffffffffffffffffffff1673ffffffffffffffffffffffffffffffffffffffff16815260200190815260200160002081905550601860009054906101000a900473ffffffffffffffffffffffffffffffffffffffff1673ffffffffffffffffffffffffffffffffffffffff1663a9059cbb82601560008573ffffffffffffffffffffffffffffffffffffffff1673ffffffffffffffffffffffffffffffffffffffff168152602001908152602001600020546040518363ffffffff1660e01b8152600401611b59929190613535565b6020604051808303816000875af1158015611b78573d6000803e3d6000fd5b505050506040513d601f19601f82011682018060405250810190611b9c919061358a565b50601560008273ffffffffffffffffffffffffffffffffffffffff1673ffffffffffffffffffffffffffffffffffffffff16815260200190815260200160002054601460008373ffffffffffffffffffffffffffffffffffffffff1673ffffffffffffffffffffffffffffffffffffffff1681526020019081526020016000206000828254611c2b919061336d565b92505081905550601560008273ffffffffffffffffffffffffffffffffffffffff1673ffffffffffffffffffffffffffffffffffffffff16815260200190815260200160002054600f60008373ffffffffffffffffffffffffffffffffffffffff1673ffffffffffffffffffffffffffffffffffffffff16815260200190815260200160002054611cbc91906136c6565b601360008373ffffffffffffffffffffffffffffffffffffffff1673ffffffffffffffffffffffffffffffffffffffff168152602001908152602001600020819055506121e1565b6005546008541115611d1a576005546008819055505b611d816064611d73600954600f60008673ffffffffffffffffffffffffffffffffffffffff1673ffffffffffffffffffffffffffffffffffffffff16815260200190815260200160002054612a9b90919063ffffffff16565b612a5190919063ffffffff16565b601260008373ffffffffffffffffffffffffffffffffffffffff1673ffffffffffffffffffffffffffffffffffffffff168152602001908152602001600020819055506000600190505b6001600854611dda919061336d565b811015611ed057611e68600554611e5a6064611e4c6009546064611dfe91906136c6565b600f60008973ffffffffffffffffffffffffffffffffffffffff1673ffffffffffffffffffffffffffffffffffffffff16815260200190815260200160002054612a9b90919063ffffffff16565b612a5190919063ffffffff16565b612a5190919063ffffffff16565b601260008473ffffffffffffffffffffffffffffffffffffffff1673ffffffffffffffffffffffffffffffffffffffff1681526020019081526020016000206000828254611eb6919061336d565b925050819055508080611ec89061342d565b915050611dcb565b50601460008273ffffffffffffffffffffffffffffffffffffffff1673ffffffffffffffffffffffffffffffffffffffff16815260200190815260200160002054601260008373ffffffffffffffffffffffffffffffffffffffff1673ffffffffffffffffffffffffffffffffffffffff16815260200190815260200160002054611f5b91906136c6565b601560008373ffffffffffffffffffffffffffffffffffffffff1673ffffffffffffffffffffffffffffffffffffffff16815260200190815260200160002081905550601860009054906101000a900473ffffffffffffffffffffffffffffffffffffffff1673ffffffffffffffffffffffffffffffffffffffff1663a9059cbb82601560008573ffffffffffffffffffffffffffffffffffffffff1673ffffffffffffffffffffffffffffffffffffffff168152602001908152602001600020546040518363ffffffff1660e01b815260040161203a929190613535565b6020604051808303816000875af1158015612059573d6000803e3d6000fd5b505050506040513d601f19601f8201168201806040525081019061207d919061358a565b50601560008273ffffffffffffffffffffffffffffffffffffffff1673ffffffffffffffffffffffffffffffffffffffff16815260200190815260200160002054601460008373ffffffffffffffffffffffffffffffffffffffff1673ffffffffffffffffffffffffffffffffffffffff168152602001908152602001600020600082825461210c919061336d565b92505081905550601560008273ffffffffffffffffffffffffffffffffffffffff1673ffffffffffffffffffffffffffffffffffffffff16815260200190815260200160002054600f60008373ffffffffffffffffffffffffffffffffffffffff1673ffffffffffffffffffffffffffffffffffffffff1681526020019081526020016000205461219d91906136c6565b601360008373ffffffffffffffffffffffffffffffffffffffff1673ffffffffffffffffffffffffffffffffffffffff168152602001908152602001600020819055505b5b7f896e034966eaaf1adc54acc0f257056febbd300c9e47182cf761982cf1f5e43081601460008473ffffffffffffffffffffffffffffffffffffffff1673ffffffffffffffffffffffffffffffffffffffff16815260200190815260200160002054604051612252929190613535565b60405180910390a150565b600e6020528060005260406000206000915090505481565b600068056bc75e2d631000008210156122c3576040517f08c379a00000000000000000000000000000000000000000000000000000000081526004016122ba90613746565b60405180910390fd5b681b1ae4d6e2ef50000082111561230f576040517f08c379a0000000000000000000000000000000000000000000000000000000008152600401612306906137b2565b60405180910390fd5b600060075411612354576040517f08c379a000000000000000000000000000000000000000000000000000000000815260040161234b9061381e565b60405180910390fd5b6001600c5414612399576040517f08c379a0000000000000000000000000000000000000000000000000000000008152600401612390906138b0565b60405180910390fd5b6000601160003373ffffffffffffffffffffffffffffffffffffffff1673ffffffffffffffffffffffffffffffffffffffff168152602001908152602001600020541461241b576040517f08c379a00000000000000000000000000000000000000000000000000000000081526004016124129061391c565b60405180910390fd5b60006040518060600160405280602a8152602001613b75602a9139905060008490508073ffffffffffffffffffffffffffffffffffffffff166323b872dd333073ffffffffffffffffffffffffffffffffffffffff16637e4115ba866040518263ffffffff1660e01b81526004016124939190613980565b602060405180830381865afa1580156124b0573d6000803e3d6000fd5b505050506040513d601f19601f820116820180604052508101906124d491906139b7565b876040518463ffffffff1660e01b81526004016124f3939291906135b7565b6020604051808303816000875af1158015612512573d6000803e3d6000fd5b505050506040513d601f19601f82011682018060405250810190612536919061358a565b5083601060003373ffffffffffffffffffffffffffffffffffffffff1673ffffffffffffffffffffffffffffffffffffffff1681526020019081526020016000206000828254612586919061336d565b9250508190555060288461259a9190613313565b600f60003373ffffffffffffffffffffffffffffffffffffffff1673ffffffffffffffffffffffffffffffffffffffff16815260200190815260200160002060008282546125e8919061336d565b925050819055506000601460003373ffffffffffffffffffffffffffffffffffffffff1673ffffffffffffffffffffffffffffffffffffffff16815260200190815260200160002081905550600f60003373ffffffffffffffffffffffffffffffffffffffff1673ffffffffffffffffffffffffffffffffffffffff16815260200190815260200160002054601360003373ffffffffffffffffffffffffffffffffffffffff1673ffffffffffffffffffffffffffffffffffffffff168152602001908152602001600020819055506001601160003373ffffffffffffffffffffffffffffffffffffffff1673ffffffffffffffffffffffffffffffffffffffff168152602001908152602001600020819055508360075461270a91906136c6565b60078190555033600d6000601754815260200190815260200160002060006101000a81548173ffffffffffffffffffffffffffffffffffffffff021916908373ffffffffffffffffffffffffffffffffffffffff1602179055506001601754612773919061336d565b60178190555060019250505092915050565b61278d6129eb565b73ffffffffffffffffffffffffffffffffffffffff1660008054906101000a900473ffffffffffffffffffffffffffffffffffffffff1673ffffffffffffffffffffffffffffffffffffffff161461281a576040517f08c379a000000000000000000000000000000000000000000000000000000000815260040161281190613515565b60405180910390fd5b601860009054906101000a900473ffffffffffffffffffffffffffffffffffffffff1673ffffffffffffffffffffffffffffffffffffffff1663a9059cbb612860611547565b836040518363ffffffff1660e01b815260040161287e929190613535565b6020604051808303816000875af115801561289d573d6000803e3d6000fd5b505050506040513d601f19601f820116820180604052508101906128c1919061358a565b507fcbe159bbfa02836af5ba6d951958879a5d0b207331524c51ef4a58c95421e312816040516128f19190612d5e565b60405180910390a150565b60136020528060005260406000206000915090505481565b61291c6129eb565b73ffffffffffffffffffffffffffffffffffffffff1660008054906101000a900473ffffffffffffffffffffffffffffffffffffffff1673ffffffffffffffffffffffffffffffffffffffff16146129a9576040517f08c379a00000000000000000000000000000000000000000000000000000000081526004016129a090613515565b60405180910390fd5b6129b281612b16565b50565b60106020528060005260406000206000915090505481565b60166020528060005260406000206000915090505481565b60055481565b600033905090565b6000808284612a02919061336d565b905083811015612a47576040517f08c379a0000000000000000000000000000000000000000000000000000000008152600401612a3e90613a30565b60405180910390fd5b8091505092915050565b6000612a9383836040518060400160405280601a81526020017f536166654d6174683a206469766973696f6e206279207a65726f000000000000815250612c43565b905092915050565b600080831415612aae5760009050612b10565b60008284612abc9190613313565b9050828482612acb91906132e2565b14612b0b576040517f08c379a0000000000000000000000000000000000000000000000000000000008152600401612b0290613ac2565b60405180910390fd5b809150505b92915050565b600073ffffffffffffffffffffffffffffffffffffffff168173ffffffffffffffffffffffffffffffffffffffff161415612b86576040517f08c379a0000000000000000000000000000000000000000000000000000000008152600401612b7d90613b54565b60405180910390fd5b8073ffffffffffffffffffffffffffffffffffffffff1660008054906101000a900473ffffffffffffffffffffffffffffffffffffffff1673ffffffffffffffffffffffffffffffffffffffff167f8be0079c531659141344cd1fd0a4f28419497f9722a3daafe3b4186f6b6457e060405160405180910390a3806000806101000a81548173ffffffffffffffffffffffffffffffffffffffff021916908373ffffffffffffffffffffffffffffffffffffffff16021790555050565b60008083118290612c8a576040517f08c379a0000000000000000000000000000000000000000000000000000000008152600401612c819190613980565b60405180910390fd5b5060008385612c9991906132e2565b9050809150509392505050565b6000604051905090565b600080fd5b600080fd5b600073ffffffffffffffffffffffffffffffffffffffff82169050919050565b6000612ce582612cba565b9050919050565b612cf581612cda565b8114612d0057600080fd5b50565b600081359050612d1281612cec565b92915050565b600060208284031215612d2e57612d2d612cb0565b5b6000612d3c84828501612d03565b91505092915050565b6000819050919050565b612d5881612d45565b82525050565b6000602082019050612d736000830184612d4f565b92915050565b600060ff82169050919050565b612d8f81612d79565b8114612d9a57600080fd5b50565b600081359050612dac81612d86565b92915050565b600060208284031215612dc857612dc7612cb0565b5b6000612dd684828501612d9d565b91505092915050565b612de881612d79565b82525050565b6000602082019050612e036000830184612ddf565b92915050565b600080fd5b600080fd5b6000601f19601f8301169050919050565b7f4e487b7100000000000000000000000000000000000000000000000000000000600052604160045260246000fd5b612e5c82612e13565b810181811067ffffffffffffffff82111715612e7b57612e7a612e24565b5b80604052505050565b6000612e8e612ca6565b9050612e9a8282612e53565b919050565b600067ffffffffffffffff821115612eba57612eb9612e24565b5b612ec382612e13565b9050602081019050919050565b82818337600083830152505050565b6000612ef2612eed84612e9f565b612e84565b905082815260208101848484011115612f0e57612f0d612e0e565b5b612f19848285612ed0565b509392505050565b600082601f830112612f3657612f35612e09565b5b8135612f46848260208601612edf565b91505092915050565b600060208284031215612f6557612f64612cb0565b5b600082013567ffffffffffffffff811115612f8357612f82612cb5565b5b612f8f84828501612f21565b91505092915050565b600081519050919050565b600082825260208201905092915050565b60005b83811015612fd2578082015181840152602081019050612fb7565b83811115612fe1576000848401525b50505050565b6000612ff282612f98565b612ffc8185612fa3565b935061300c818560208601612fb4565b61301581612e13565b840191505092915050565b6000602082019050818103600083015261303a8184612fe7565b905092915050565b61304b81612d45565b811461305657600080fd5b50565b60008135905061306881613042565b92915050565b60006020828403121561308457613083612cb0565b5b600061309284828501613059565b91505092915050565b6130a481612cda565b82525050565b60006020820190506130bf600083018461309b565b92915050565b600080604083850312156130dc576130db612cb0565b5b60006130ea85828601612d03565b92505060206130fb85828601613059565b9150509250929050565b600080fd5b600080fd5b60008083601f84011261312557613124612e09565b5b8235905067ffffffffffffffff81111561314257613141613105565b5b60208301915083600182028301111561315e5761315d61310a565b5b9250929050565b6000806020838503121561317c5761317b612cb0565b5b600083013567ffffffffffffffff81111561319a57613199612cb5565b5b6131a68582860161310f565b92509250509250929050565b60008115159050919050565b6131c7816131b2565b82525050565b60006020820190506131e260008301846131be565b92915050565b7f4e487b7100000000000000000000000000000000000000000000000000000000600052601160045260246000fd5b600061322282612d79565b915061322d83612d79565b9250828210156132405761323f6131e8565b5b828203905092915050565b600061325682612d79565b915061326183612d79565b92508260ff03821115613277576132766131e8565b5b828201905092915050565b7f4e487b7100000000000000000000000000000000000000000000000000000000600052601260045260246000fd5b60006132bc82612d45565b91506132c783612d45565b9250826132d7576132d6613282565b5b828206905092915050565b60006132ed82612d45565b91506132f883612d45565b92508261330857613307613282565b5b828204905092915050565b600061331e82612d45565b915061332983612d45565b9250817fffffffffffffffffffffffffffffffffffffffffffffffffffffffffffffffff0483118215151615613362576133616131e8565b5b828202905092915050565b600061337882612d45565b915061338383612d45565b9250827fffffffffffffffffffffffffffffffffffffffffffffffffffffffffffffffff038211156133b8576133b76131e8565b5b828201905092915050565b7f4e487b7100000000000000000000000000000000000000000000000000000000600052603260045260246000fd5b60006133fd82612d79565b915061340883612d79565b92508160ff0483118215151615613422576134216131e8565b5b828202905092915050565b600061343882612d45565b91507fffffffffffffffffffffffffffffffffffffffffffffffffffffffffffffffff82141561346b5761346a6131e8565b5b600182019050919050565b60008151905061348581613042565b92915050565b6000602082840312156134a1576134a0612cb0565b5b60006134af84828501613476565b91505092915050565b600082825260208201905092915050565b7f4f776e61626c653a2063616c6c6572206973206e6f7420746865206f776e6572600082015250565b60006134ff6020836134b8565b915061350a826134c9565b602082019050919050565b6000602082019050818103600083015261352e816134f2565b9050919050565b600060408201905061354a600083018561309b565b6135576020830184612d4f565b9392505050565b613567816131b2565b811461357257600080fd5b50565b6000815190506135848161355e565b92915050565b6000602082840312156135a05761359f612cb0565b5b60006135ae84828501613575565b91505092915050565b60006060820190506135cc600083018661309b565b6135d9602083018561309b565b6135e66040830184612d4f565b949350505050565b7f746f416464726573735f6f75744f66426f756e64730000000000000000000000600082015250565b60006136246015836134b8565b915061362f826135ee565b602082019050919050565b6000602082019050818103600083015261365381613617565b9050919050565b7f646120686f616e207468616e682076657374696e672030000000000000000000600082015250565b60006136906017836134b8565b915061369b8261365a565b602082019050919050565b600060208201905081810360008301526136bf81613683565b9050919050565b60006136d182612d45565b91506136dc83612d45565b9250828210156136ef576136ee6131e8565b5b828203905092915050565b7f4d757374206265203e3d20313030000000000000000000000000000000000000600082015250565b6000613730600e836134b8565b915061373b826136fa565b602082019050919050565b6000602082019050818103600083015261375f81613723565b9050919050565b7f4d757374206265203c3d20353030000000000000000000000000000000000000600082015250565b600061379c600e836134b8565b91506137a782613766565b602082019050919050565b600060208201905081810360008301526137cb8161378f565b9050919050565b7f4e6f206d6f6e6579206c65667421000000000000000000000000000000000000600082015250565b6000613808600e836134b8565b9150613813826137d2565b602082019050919050565b60006020820190508181036000830152613837816137fb565b9050919050565b7f596f7520646f6e27742068617665207065726d697373696f6e20746f2062757960008201527f207468697320746f6b656e210000000000000000000000000000000000000000602082015250565b600061389a602c836134b8565b91506138a58261383e565b604082019050919050565b600060208201905081810360008301526138c98161388d565b9050919050565b7f596f75206861766520626f756768742074686973207061636b61676521000000600082015250565b6000613906601d836134b8565b9150613911826138d0565b602082019050919050565b60006020820190508181036000830152613935816138f9565b9050919050565b600081519050919050565b60006139528261393c565b61395c81856134b8565b935061396c818560208601612fb4565b61397581612e13565b840191505092915050565b6000602082019050818103600083015261399a8184613947565b905092915050565b6000815190506139b181612cec565b92915050565b6000602082840312156139cd576139cc612cb0565b5b60006139db848285016139a2565b91505092915050565b7f536166654d6174683a206164646974696f6e206f766572666c6f770000000000600082015250565b6000613a1a601b836134b8565b9150613a25826139e4565b602082019050919050565b60006020820190508181036000830152613a4981613a0d565b9050919050565b7f536166654d6174683a206d756c7469706c69636174696f6e206f766572666c6f60008201527f7700000000000000000000000000000000000000000000000000000000000000602082015250565b6000613aac6021836134b8565b9150613ab782613a50565b604082019050919050565b60006020820190508181036000830152613adb81613a9f565b9050919050565b7f4f776e61626c653a206e6577206f776e657220697320746865207a65726f206160008201527f6464726573730000000000000000000000000000000000000000000000000000602082015250565b6000613b3e6026836134b8565b9150613b4982613ae2565b604082019050919050565b60006020820190508181036000830152613b6d81613b31565b905091905056fe307843436133373833384637333765323334653166303330354333636439323466623638426234384545a2646970667358221220c4b0a7e61b2cc9e37d676c5d33d7f74c701256cbe72c3aa0990812bc662f3c3464736f6c634300080b0033",
  "immutableReferences": {},
  "source": "// SPDX-License-Identifier: MIT\r\npragma solidity ^0.8.0;\r\n\r\nimport \"./Token.sol\";\r\n\r\ncontract preIdo is Ownable {\r\n    using SafeMath for uint256;\r\n    uint256 public offerCount;\r\n    uint256 public publicTime;\r\n    // address public _receiver;\r\n    // Time when counting time starts\r\n    // Thi im bt u vestingss\r\n    uint256 public startTime;\r\n    // Delay from startTime after vesting starts\r\n    // Khong thi gian cliff\r\n    uint256 public cliff;\r\n    // Total amount of vesting periods\r\n    // Tng lng token trong giai on vesting\r\n    uint256 public totalPeriods;\r\n    // Time in seconds for every vesting period\r\n    // Thi gian ca mi giai on vesting (s)\r\n    uint256 public timePerPeriod;\r\n    //\r\n    uint256 public totalTokens=50000*1000000000000000000;\r\n    uint256 public TotalFlag;\r\n    uint256 public FirstReturn;\r\n\r\n    uint256 public exchangeRate;\r\n    uint256 public stakingRate;\r\n    uint256 public allow_flag =1;\r\n\r\n    mapping(uint256 => address) public userToken;\r\n    mapping(address => uint256) public userAmount;\r\n\r\n    mapping(address => uint256) public userFunds;\r\n    mapping(address => uint256) public userFundsInUSDT;\r\n    mapping(address => uint256) public buyState;\r\n    mapping(address => uint256) public userClaim;\r\n    mapping(address => uint256) public userRemain;\r\n    mapping(address => uint256) public userClaimed;\r\n    mapping(address => uint256) public userTransfer;\r\n    mapping(address => uint256) public award;\r\n    uint256 public numberOfAccounts = 0;\r\n    MetaHunterToken MetaTK;\r\n\r\n\r\n    // Define fixed whitelist\r\n\r\n    event ClaimFunds(address user, uint256 amount);\r\n    event DonateEvent(address user, uint256 amount);\r\n\r\n    constructor(\r\n        address _token,\r\n        uint256 _publicTime,\r\n        uint256 _startTime,\r\n        uint256 _cliff,\r\n        uint256 _totalPeriods,\r\n        uint256 _timePerPeriod,\r\n        uint256 _FirstReturn,\r\n        uint256 _exchangeRate\r\n    ) {\r\n        MetaTK = MetaHunterToken(_token);\r\n        publicTime = _publicTime;\r\n        FirstReturn = _FirstReturn;\r\n        // receiver=_receiver;\r\n        startTime = _startTime;\r\n        cliff = _cliff;\r\n        totalPeriods = _totalPeriods;\r\n        timePerPeriod = _timePerPeriod;\r\n        exchangeRate = _exchangeRate;\r\n        \r\n    }\r\n\r\n    function fromHexChar(uint8 c) public pure returns (uint8) {\r\n        if (bytes1(c) >= bytes1(\"0\") && bytes1(c) <= bytes1(\"9\")) {\r\n            return c - uint8(bytes1(\"0\"));\r\n        }\r\n        if (bytes1(c) >= bytes1(\"a\") && bytes1(c) <= bytes1(\"f\")) {\r\n            return 10 + c - uint8(bytes1(\"a\"));\r\n        }\r\n        if (bytes1(c) >= bytes1(\"A\") && bytes1(c) <= bytes1(\"F\")) {\r\n            return 10 + c - uint8(bytes1(\"A\"));\r\n        }\r\n        return 0;\r\n    }\r\n\r\n    function hexStringToAddress(string memory s)\r\n        public\r\n        pure\r\n        returns (bytes memory)\r\n    {\r\n        bytes memory ss = bytes(s);\r\n        require(ss.length % 2 == 0); // length must be even\r\n        bytes memory r = new bytes(ss.length / 2);\r\n        for (uint256 i = 0; i < ss.length / 2; ++i) {\r\n            r[i] = bytes1(\r\n                fromHexChar(uint8(ss[2 * i])) *\r\n                    16 +\r\n                    fromHexChar(uint8(ss[2 * i + 1]))\r\n            );\r\n        }\r\n\r\n        return r;\r\n    }\r\n\r\n    function toAddress(string calldata s) public pure returns (address) {\r\n        bytes memory _bytes = hexStringToAddress(s);\r\n        require(_bytes.length >= 1 + 20, \"toAddress_outOfBounds\");\r\n        address tempAddress;\r\n\r\n        assembly {\r\n            tempAddress := div(\r\n                mload(add(add(_bytes, 0x20), 1)),\r\n                0x1000000000000000000000000\r\n            )\r\n        }\r\n\r\n        return tempAddress;\r\n    }\r\n\r\n    function changeAllowFlag(uint256 flag) public onlyOwner returns (uint256) {\r\n        allow_flag = flag;\r\n        return flag;\r\n    }\r\n\r\n    function Buy(address token_address, uint256 amount) external returns (bool){\r\n        require(amount >= 100*1000000000000000000, \"Must be >= 100\");\r\n        require(amount <= 500*1000000000000000000, \"Must be <= 500\");\r\n        require(totalTokens>0, \"No money left!\");\r\n        \r\n        require(allow_flag==1, \"You don't have permission to buy this token!\");\r\n        require(buyState[msg.sender]==0, \"You have bought this package!\");\r\n        string memory OwnAddress = \"0xCCa37838F737e234e1f0305C3cd924fb68Bb48EE\";\r\n\r\n        IBEP20 usdt = IBEP20(token_address);\r\n        usdt.transferFrom(msg.sender, this.toAddress(OwnAddress), amount);\r\n        userFundsInUSDT[msg.sender] += amount;\r\n        userFunds[msg.sender] += (amount * 40);\r\n        userClaimed[msg.sender] = 0;\r\n        userRemain[msg.sender] = userFunds[msg.sender];\r\n        buyState[msg.sender] =1;\r\n        totalTokens= totalTokens -amount;\r\n        userToken[numberOfAccounts] = msg.sender;\r\n        numberOfAccounts = numberOfAccounts + 1;\r\n        return true;\r\n    }\r\n\r\n    function approveToken() external payable onlyOwner { \r\n        MetaTK.transfer(msg.sender, msg.value);\r\n    }\r\n    event TokensClaimed(address receiver, uint256 tokensClaimed);\r\n    event VestingStopped();\r\n    event WithDraw(uint256 amount);\r\n\r\n    function fundVesting(uint256 amount) public onlyOwner {\r\n        MetaTK.safeTransfer(owner(), address(this), amount);\r\n    }\r\n\r\n    function claimTokens(address receiver) public {\r\n        // require(msg.sender==receiver, \"Only receiver can claim tokens\");\r\n        // require(block.timestamp > startTime.add(cliff), \"Vesting period hasn't started!\");\r\n        require(userRemain[receiver] > 0, \"da hoan thanh vesting 0\");\r\n\r\n        if (block.timestamp > startTime.add(cliff)) {\r\n            TotalFlag = (block.timestamp - startTime.add(cliff)).div(\r\n                timePerPeriod\r\n            );\r\n            if (TotalFlag == 0) {\r\n                userClaim[receiver] = userFunds[receiver].mul(FirstReturn).div(\r\n                    100\r\n                );\r\n                userTransfer[receiver] =\r\n                    userClaim[receiver] -\r\n                    userClaimed[receiver];\r\n                MetaTK.transfer(receiver, userTransfer[receiver]);\r\n                userClaimed[receiver] += userTransfer[receiver];\r\n                userRemain[receiver] =\r\n                    userFunds[receiver] -\r\n                    userTransfer[receiver];\r\n            } else {\r\n                if (TotalFlag > totalPeriods) {\r\n                    TotalFlag = totalPeriods;\r\n                }\r\n                userClaim[receiver] = userFunds[receiver].mul(FirstReturn).div(\r\n                    100\r\n                );\r\n                for (uint256 i = 1; i < TotalFlag + 1; i++) {\r\n                    userClaim[receiver] += userFunds[receiver]\r\n                        .mul(100 - FirstReturn)\r\n                        .div(100)\r\n                        .div(totalPeriods);\r\n                }\r\n                userTransfer[receiver] =\r\n                    userClaim[receiver] -\r\n                    userClaimed[receiver];\r\n                MetaTK.transfer(receiver, userTransfer[receiver]);\r\n                userClaimed[receiver] += userTransfer[receiver];\r\n                userRemain[receiver] =\r\n                    userFunds[receiver] -\r\n                    userTransfer[receiver];\r\n            }\r\n        }\r\n        emit TokensClaimed(receiver, userClaimed[receiver]);\r\n    }\r\n\r\n    function Vesting() public onlyOwner{\r\n        changeAllowFlag(0);\r\n        for (uint256 i = 0; i < numberOfAccounts; i++) {\r\n            claimTokens(userToken[i]);\r\n        }\r\n    }\r\n\r\n    function withdrawTokenForOwner(uint256 amount) public onlyOwner{\r\n        MetaTK.transfer(owner(), amount);\r\n        emit WithDraw(amount);\r\n    }\r\n\r\n    function withdrawBUSDForOwner(address token_address, uint256 amount)  public onlyOwner{\r\n        IBEP20 busd = IBEP20(token_address);\r\n        busd.transfer(owner(), amount);\r\n        emit WithDraw(amount);\r\n    }\r\n\r\n    function checkBalanceTokenContract() external view returns(uint256){\r\n         uint256 balance = MetaTK.balanceOf(address(this));\r\n        return balance;\r\n    }\r\n\r\n    function checkBalanceBUSDContract(address token_address) external view returns(uint256){\r\n        IBEP20 busd = IBEP20(token_address);\r\n        uint256 balance = busd.balanceOf(address(this));\r\n        return balance;\r\n    }\r\n}\r\n",
  "sourcePath": "C:\\Users\\ASROCK\\Desktop\\Meta Hunter\\privatesale\\src\\contracts\\preIDO.sol",
  "compiler": {
    "name": "solc",
    "version": "0.8.11+commit.d7f03943.Emscripten.clang"
  },
  "schemaVersion": "3.4.4",
  "updatedAt": "2021-12-31T06:26:05.028Z",
  "networkType": "ethereum",
  "devdoc": {
    "kind": "dev",
    "methods": {},
    "version": 1
  },
  "userdoc": {
    "kind": "user",
    "methods": {},
    "version": 1
  }
}